:020000040800F2
:10000000089A0120D9010008573C00085532000821
:10001000553C0008FB1E00087B440008000000005F
:100020000000000000000000000000007B3C000811
:10003000AD1F000800000000793C00087D3C00086E
:10004000F3010008F3010008F3010008F3010008C0
:10005000F3010008F3010008F3010008F3010008B0
:10006000F3010008F3010008F3010008F3010008A0
:10007000F3010008F3010008F3010008F301000890
:10008000F3010008F3010008F3010008F301000880
:10009000F3010008F3010008F3010008F301000870
:1000A000F3010008F3010008F3010008F301000860
:1000B000F3010008F3010008F3010008F301000850
:1000C000F3010008F3010008F3010008F301000840
:1000D000F3010008F3010008F3010008F301000830
:1000E000F3010008F3010008F3010008F301000820
:1000F000F3010008F3010008F3010008F301000810
:10010000F3010008F3010008F3010008F3010008FF
:10011000F3010008F3010008F3010008F3010008EF
:10012000FD1E0008F3010008F3010008F3010008B8
:10013000F30100080000000000000000F3010008C7
:10014000F3010008F3010008F3010008F3010008BF
:10015000F3010008F3010008F3010008F3010008AF
:10016000F3010008F3010008F3010008F30100089F
:10017000F3010008F3010008F3010008000000008B
:1001800000000000F3010008000000000000000073
:10019000F30100080000000000000000F301000867
:1001A000000000000000000000000000F301000853
:1001B000F3010008F3010008F3010008F30100084F
:1001C000F3010008DFF80CD000F034FB00480047D2
:1001D00067570008089A01200648804706480047EC
:1001E000FEE7FEE7FEE7FEE7FEE7FEE7FEE7FEE7E7
:1001F000FEE7FEE72F3D0008C50100082DE9F05F8E
:100200000546002092469B46884606468146402485
:100210001BE0284641464746224600F08DF95346EA
:100220005A46C01A914110D311461846224600F092
:1002300074F92D1A67EB01084F4622460120002170
:1002400000F06BF917EB00094E41201EA4F10104E8
:10025000DFDC484631462A464346BDE8F09F2DE99B
:10026000FE4F804681EA0300C00F0C46009021F04B
:10027000004123F00045B8EB0200A94105D24046F9
:10028000214690461C460B46024623F00040104390
:1002900047D0270DC7F30A00C3F30A510290401A52
:1002A000019040286BDAC3F3130040F4801B0098E0
:1002B000924620B10023D2EB030A63EB0B0B0198AB
:1002C0005946C0F14002504600F027F906460D4657
:1002D00050465946019A00F03FF910EB0800614181
:1002E000002487EA115284EAE7731A4340D0009A47
:1002F00062B3019A012A4FEA075215DC001B61EB39
:1003000002014FF0004202EA0752CDE90042001C10
:1003100041F5801132462B4600F076F903B0BDE876
:10032000F08F40462146F9E7001B61EB0201001CFB
:1003300041F5801300185B412018A2F5001747EB28
:10034000030140EAD570B6196D4111E06D084FEA1E
:10035000360645EAC0754FEA0752001B61EB020101
:10036000001C41F5801149084FEA30000019514145
:1003700032462B4603B0BDE8F04F00F036B9009886
:10038000012240000023D0EB020263EBE0730098EF
:1003900021464FEAE074B8EB000061EB0401E9E7A5
:1003A00083F000435BE781F0004158E72DE9FE4F01
:1003B00081EA030404F0004421F0004100944FF06E
:1003C000000B23F0004350EA01045ED052EA03041C
:1003D0005BD0C3F30A54C1F30A552C44A4F2F3349E
:1003E0000194A0FB0254C1F3130141F48011C3F343
:1003F000130343F4801301FB024400FB034E840A01
:10040000970A44EA815447EA8357A4FB0768029598
:100410008D0A05FB07854FEA932C04FB0C54270536
:10042000029D4FEA065847EA1637B5EB08056EEB12
:10043000070C870E920E47EA811742EA8312A7FB48
:100440000201B6EB0B0164EB00042B0D43EA0C3305
:100450005E1844EB1C50DA465146E7FB0201C5F337
:1004600013044FEA0B3343EA14534FEA0432019C5E
:1004700043EA0603A4F10C040294009CCDE900B405
:1004800000F0C2F803B0BDE8F08F00200146F9E7A4
:1004900000F0004230F000400AD0C10D01F560715B
:1004A000C0F3160042EA0151C208400711437047E9
:1004B00000200146704701F0004330B421F00041B4
:1004C00050EA010206D00A0DA2F56072C1F31301D1
:1004D000002A02DC30BC00207047440F44EAC1040B
:1004E000C100E01830BC00EBC25000F047B830B596
:1004F0000B46014600202022012409E021FA02F5E2
:100500009D4205D303FA02F5491B04FA02F528447B
:10051000151EA2F10102F1DC30BD202A04DB203AD5
:1005200000FA02F1002070479140C2F1200320FA46
:1005300003F3194390407047202A04DB203A21FA44
:1005400002F00021704721FA02F3D040C2F12002EC
:100550009140084319467047202A06DBCB17203A02
:1005600041FA02F043EAE07306E041FA02F3D040B8
:10057000C2F1200291400843194670470029A8BFE4
:100580007047401C490008BF20F00100704710B4BC
:10059000B0FA80FC00FA0CF050EA010404BF10BC71
:1005A000704749B1CCF1200421FA04F411FA0CF19E
:1005B00018BF012121430843A3EB0C01CB1D4FEAD7
:1005C00000614FEA102042BF002010BC704700EBD2
:1005D000C35010440029A4BF10BC7047401C490000
:1005E00008BF20F0010010BC704710B5141E73F155
:1005F000000408DA401C41F1000192185B411A43E3
:1006000001D120F0010010BD2DE9F04D92469B462E
:1006100011B1B1FA81F202E0B0FA80F220329046D4
:10062000FFF77BFF04460F4640EA0A0041EA0B0150
:1006300053465A46084313D0114653EA010019D0D5
:10064000C8F140025046FFF777FF05460E46504678
:1006500059464246FFF761FF084305D0012004E0F8
:1006600020463946BDE8F08D0020054346EAE07695
:100670002C4337430A986305E40AA0EB08000022E4
:10068000FD0A44EA47540A3002D500200146E9E752
:10069000010510196941DDE9084500196941BDE806
:1006A000F04DA2E72DE9F04D81EA030404F0004B80
:1006B00021F0004514464FF0000A23F0004150EAB3
:1006C000050220D054EA01021DD0C5F30A570246A4
:1006D000C5F31303C1F31300C1F30A5640F48015A8
:1006E00043F48013A7EB0608101BD64608F2FD382A
:1006F00073EB050002D308F1010801E092185B4199
:10070000B8F1000F03DA00200146BDE8F08D0020AB
:100710004FF48011064684460EE0171B73EB050765
:1007200005D3121B63EB050306434CEA010C490891
:100730004FEA300092185B4150EA0107EDD152EACE
:10074000030012D082EA040083EA0501084305D0C1
:10075000101BAB4106D20122002306E000224FF01D
:10076000004302E06FF0010253101AEB06004CEB5D
:10077000085110EB0A0041EB0B01BDE8F04DFFF70B
:1007800034BF0EB5C10F80EAE0700844CA070021EB
:1007900040F233438DE80E000A460B46FFF734FF64
:1007A00003B000BDC1F30A52C1F3130140F2FF339D
:1007B00041F480119A4202DA00200146704740F26B
:1007C00033439A42A2F2334202DC5242FFF7B4BEF4
:1007D000FFF7A3BE30B5041E71F1000404DB4FF037
:1007E0000044404264EB0101141E73F1000405DB78
:1007F0001C464FF00043524263EB04038B4208BF98
:10080000824230BD30B5041E71F1000404DB4FF0AC
:100810000044404264EB0101141E73F1000405DB47
:100820001C464FF00043524263EB0403994208BF59
:10083000904230BD064C074D06E0E06840F00103F1
:1008400094E8070098471034AC42F6D3FFF7BEFC9B
:1008500088910108A891010870B58D1810F8014B16
:1008600014F0030201D110F8012B231106D110F866
:10087000013B03E010F8016B01F8016B521EF9D146
:10088000ABB110F8012B04F00C048A1A0C2C03D025
:10089000A2EB84129B1C08E010F8014BA2EB04228F
:1008A000F8E712F8014B01F8014B5B1EF9D5A9429C
:1008B000D4D3002070BD0000B0B5E1B14FF0000C02
:1008C00002EB4C0432F81C300CF1020C64888C45AD
:1008D00023F0030324F0030450F803E00559C55046
:1008E00040F804E003440444D3F804E065685D6024
:1008F000C4F804E0E4D3B0BD2DE9F0410588984682
:1009000016460C460746012A0CD1E5B3201D2946A0
:1009100090ED000A0139B1EE400A80ED000A00F1C5
:100920000800F5D1FF2D0CDDB5F5806F10DBB5F5B6
:10093000805F22D0B5F5006F11D0B5F5806F17D06C
:1009400021E03F2D10DC102D12D0202D07D01AE011
:10095000B5F5807F03D0B5F5007F0ED013E03846A3
:10096000214600F007F90EE0402D06D0802D0AD177
:100970003846214600F030F805E07A6820462946DE
:10098000012300F005FDB8F1000F04D0BA68B98961
:100990002046FFF791FF012E1CD100EE105A002DCA
:1009A000B8EE400A08BFBDE8F081B7EE001A81EE4C
:1009B000000A00BF94ED001A94ED012A013D20EEDB
:1009C000011A20EE422A84ED001A84ED012A04F176
:1009D0000804EFD1BDE8F0812DE9F0472DED088B3B
:1009E000804600880023D8F8042001EB800A4FEAF3
:1009F0005009B3EBD00F00F0AD80C70801EB890CB4
:100A00000AEB890E7C420027C8190AEB07060CEB9B
:100A100007030EEB0705013496ED000A90ED004A3E
:100A200096ED011A90ED015A96ED022A90ED026AB8
:100A300096ED033A90ED037AD5ED000AD5ED011A53
:100A4000D5ED022AD5ED033AD3ED004AD3ED015A94
:100A5000D3ED026AD3ED037A34EE00BA37EE038A9F
:100A600036EE029A35EE01AA34EE400A35EE411A0E
:100A700036EE422A37EE433A33EEE76A32EEE67A52
:100A800080ED00BA80ED01AA80ED029A80ED038A24
:100A900034EEA0BA35EEA1AA37EEA38A36EEA29ABA
:100AA00002EB070071EEE51A70EEE40A07F1100799
:100AB00083ED00BA83ED01AA83ED029A83ED038AE8
:100AC00090ED008A90ED019A20EE094A21EE085A35
:100AD00021EE091A20EE080A35EE444A30EE010AEA
:100AE00021EE891A20EE885A61EE881A60EE890A92
:100AF00086ED014A86ED000A35EE010A30EEE11A74
:100B000085ED010A85ED001A90ED020A90ED031AB9
:100B100022EE014A23EE005A23EE013A22EE002A89
:100B200035EE444A32EE032A26EE013A27EE005A09
:100B300026EE000A27EE011A86ED034A86ED022A08
:100B400035EE032A31EE400A85ED032A85ED020ACF
:100B50007FF45AAF08464946022300F019FCD8F842
:100B60000420504649460223BDEC088BBDE8F047FF
:100B700000F00EBC2DE9F04F81B02DED088B92B046
:100B8000B0F800C00590406891ED000A91ED011A9F
:100B90004FF000094FF0000B4FEA5C0206906FF037
:100BA00001000F9101EB820300EB9C0703EB820530
:100BB000A9EB57006FF0030793ED004A93ED015A3C
:100BC00095ED002A95ED013A05EB8204119007EBB3
:100BD000820007EBC20E6FF0070794ED007AD4EDA8
:100BE000010A07EB0216109031EE036A70EE021A4A
:100BF00031EE431A30EE420A0E9602EB420676EED2
:100C0000052A71EE843A31EE442A30EE053A31EE8F
:100C1000041A30EE450A36EE456A71EEC41A07EB47
:100C200086004FEA9C074FEA860A73EE873A72EE17
:100C3000A02A32EE072A33EE603A31EE471A30EE40
:100C4000200A0D9001970293049597000394C1ED3B
:100C5000003AC1ED012A83ED003A83ED012A31EE1D
:100C6000C73A36EE602AD10085ED003A85ED012ABB
:100C700084ED000A84ED011A0024E0E00F98089446
:100C800007920B915A46CB46109900EB0E0400EBED
:100C900001090D990A97CDF830E0CDF824A0D4EDE4
:100CA000002A14ED015ADDF838A0D9ED001A59EDEB
:100CB000017A47180839D7ED010A00EB0A0ED7ED83
:100CC000006A0798AAF1080ADEED014A9EED004A83
:100CD00071EEA03A37EEA69A73EEA25A75EEA45AB8
:100CE000C9ED005A54ED015A9EED008A79EE255A5D
:100CF00075EE885A49ED015AD9469346D3ED035A09
:100D000093ED028A09F1080902F1180B26EE25AAD3
:100D100027EE08BA27EE257A26EE086A3BEE0AAAE5
:100D200036EE476A32EEE47A85ED02AA85ED036A73
:100D300031EEE06A77EEE60A76EE451A70EE876AE3
:100D400071EE841A66EE887A21EEA5AA66EEA55A9F
:100D500061EE881A7AEE677A71EEA51AC4ED007A10
:100D600044ED011A089CD6ED051AD6ED045A10344C
:100D700062EE216A63EE257A23EE213A22EE252ADD
:100D800077EEA66A32EE432A33EEE23ACCED026AFF
:100D90008CED032A39EE452A33EE643A32EE442ACA
:100DA00063EE653A23EE213A62EE212A22EE252AED
:100DB00073EEE22A33EE422AC7ED012A87ED002ABC
:100DC0000A9F90ED072A90ED063A1098083760EEDA
:100DD000021A61EE032A21EE021A20EE030A0838F5
:100DE00072EEA11A30EE410A37EE601AC8ED021A0F
:100DF00088ED030A34EE450A21EE034A21EE021A79
:100E000030EE460A20EE025A20EE030A35EE444A3E
:100E100030EE010A8EED014A8EED000ADDF830E079
:100E200010901198AEF1080E013011900D910B99B0
:100E3000CDF838A0DDF824A008310AF1080A0F9B8C
:100E4000119803EB090203EB010CDD1903EB0A080F
:100E5000069B00289CED020A92ED022A95ED024ABB
:100E600098ED026A9CED031A92ED033A95ED035A50
:100E700098ED037A03EB040672EE000A73EE013A72
:100E800033EE411A32EE400A70EE841A31EE042A33
:100E900070EEC40A30EE453A31EE444A71EE861ADD
:100EA00033EE071A30EEC63AC2ED021AD5ED031A38
:100EB000D8ED032A73EEA11A71EEA21AC2ED031A3D
:100EC00073EEC51A30EE055A32EE460A03EB0B02FA
:100ED0004B4434EE066A31EEC72A35EE477A7FF48A
:100EE000CDAE93ED024A93ED035A0F98042367EEBB
:100EF000050A66EE041A26EE055A27EE044A34EE79
:100F0000054A31EEE06A85ED024A85ED036A019DEE
:100F100096ED044A96ED055A294623EE056A22EE1F
:100F2000047A23EE043A22EE052A33EE022A37EE43
:100F3000464A8CED022A8CED034A92ED062A92ED88
:100F4000073A069A21EE034A20EE025A21EE021ACF
:100F500020EE030A31EE000A35EE442A88ED020A3B
:100F600088ED032A00F014FA059C02982946042310
:100F7000626800F00DFA626804982946042300F0C4
:100F800007FA626803982946042312B0BDEC088B67
:100F900001B0BDE8F04F00F0FBB900002DE9F041D1
:100FA0002DED028B0446002090460D46B0EB920FCB
:100FB0006DD04FEA9800474294ED000A94ED011A73
:100FC00021EE011A20EE000A30EE018AB0EE480A46
:100FD00003F04CFCB4EEC00AF1EE10FA03D7B0EE09
:100FE000480A03F043FC85ED000A94ED020A94EDF3
:100FF000031A21EE011A20EE000A30EE018AB0EE4B
:10100000480A03F033FCB4EEC00AF1EE10FA03D73D
:10101000B0EE480A03F02AFC85ED010A94ED040ABB
:1010200094ED051A21EE011A20EE000A30EE018A35
:10103000B0EE480A03F01AFCB4EEC00AF1EE10FA62
:1010400003D7B0EE480A03F011FC85ED020A94EDD7
:10105000060A94ED071A21EE011A20EE000A30EE7E
:10106000018AB0EE480A03F001FCB4EEC00A05F1B3
:1010700010062034F1EE10FA03D7B0EE480A03F060
:10108000F5FB85ED030A0137354695D100E02E4684
:1010900018F003001ED0454294ED000A94ED011AA9
:1010A00021EE011A20EE000A30EE018AB0EE480A65
:1010B00003F0DCFBB4EEC00A371DF1EE10FA03D7E3
:1010C000B0EE480A03F0D2FB86ED000A0834013581
:1010D0003E46E1D1BDEC028BBDE8F0810023B3EBCD
:1010E000920F67D093089FED470AB6EE001ABEEE46
:1010F000002AC3F1000C00BF90ED003AB0EE424A66
:1011000023EE003AB5EEC03AF1EE10FAC8BFB0EEE9
:10111000414A33EE043ABDEEC33AB0EE424A13EE12
:10112000103A03F307030B7090ED013A23EE003AF7
:10113000B5EEC03AF1EE10FAC8BFB0EE414A33EE58
:10114000043ABDEEC33AB0EE424A13EE103A03F34E
:1011500007034B7090ED023A23EE003AB5EEC03A29
:10116000F1EE10FAC8BFB0EE414A33EE043ABDEEDC
:10117000C33AB0EE424A13EE103A03F307038B7002
:1011800090ED033A103023EE003AB5EEC03AF1EE9E
:1011900010FAC8BFB0EE414A33EE043ABDEEC33A8E
:1011A0001CF1010C13EE103A03F30703CB7001F1AD
:1011B0000401A1D112F0030208BF70479FED110A8C
:1011C0005242B6EE001ABEEE002A00BF90ED003A81
:1011D000B0EE424A043023EE003AB5EEC03AF1EEEA
:1011E00010FAC8BFB0EE414A33EE043ABDEEC33A3E
:1011F000013213EE103A03F3070301F8013BE5D186
:10120000704700BF000000432DE9F04F8646A1F172
:10121000010900241EF801CBB4EB990F33D04FEA3B
:1012200099040126C84666F30108C4F1000A0026A5
:10123000002400BF1EF906504FFA8CF7AF420EEBA8
:101240000607B8BF741C97F901B0B8BFAC464FFA97
:101250008CF55D45BCBFB41CDC4697F902504FFAD3
:101260008CFBAB45BCBFF41CAC4697F903704FFA3E
:101270008CF50436BD42BCBF3446BC461AF1010AA7
:10128000D8D100EB080E19F003000BD0404200BF8C
:101290001EF9015B4FFA8CF6AE42BCBFAC460C188F
:1012A0000130F5D182F800C01C60BDE8F08F00006D
:1012B0000023B3EB910F22D080B58B089FED1C0A61
:1012C00021F0030CC3F1000E034600BF93ED001A9A
:1012D00093ED012A93ED023A93ED034A10331EF188
:1012E000010E30EE010A30EE020A30EE030A30EE53
:1012F000040AEBD100EB8C00BDE8804001E09FEDDB
:101300000C0A11F0030309D05B4200BF90ED001AF4
:10131000013300F1040030EE010AF7D101EE101A9A
:10132000B8EE411A80EE010A82ED000A704700BF54
:101330000000000070B54FF0000EBEEB910F18D00A
:101340008B0821F0030C4FF0000E04465E4200BFF4
:1013500054F8045B01360EEB256343FA85FE4FEA31
:1013600005434FEA05250EEB236303EB256EEFD112
:10137000604411F0030306D05B4200BF10F9016B1B
:101380000133B644FAD19EFBF1F0107070BD00003D
:101390002DE9F04F81B02DED108BA0B09FED050A27
:1013A000CDE903328C46019004301B91029008462F
:1013B00002E000BFF304353F4FEADC064FEACC07FA
:1013C0004FF0000BF30006EB860235010896A3EB05
:1013D000DC00D100C0001A9006EB46007601C40084
:1013E00000012246029CCDE91E7CCDE90C01CDE92D
:1013F0001C6500BF0C9804EB03091F461A9B04EB05
:1014000001082644254404EB020E14ED017ADDF8B0
:101410007CC0114656ED010A1EED012A18ED013A75
:1014200019ED014A15ED016A04EB030A20443B461D
:10143000E3441AED011A10ED015A77EE204A74EEDA
:10144000032A37EE607A72EE011A76EE053A32EE32
:10145000411A34EE432A36EE455A72EEA15A74EE22
:10146000A36A34EEE33A72EEE11A76EEA57A76EEEE
:10147000E55A44ED017A46ED015ADAED005ADEED07
:10148000006AD8ED007A99ED008A90ED009A95ED0A
:1014900000AA96ED00BA94ED00CA36EEA5DA38EE51
:1014A00027EA3AEE09FA7CEE0B8A36EEE54A78EE48
:1014B000673A72EE415A32EE011A3CEE4B6A7EEE0A
:1014C0000D9A78EE8FAA3EEE4DDA73EE842A78EE0E
:1014D000CF6A65EE800A33EEC42A21EE001A7AEE56
:1014E000A9BA73EE0D4A7AEEE99A33EE4D3A62EEFE
:1014F000802A76EEE15A71EEA61A22EE002A37EE25
:10150000604AC4ED00BAC6ED009A45ED014A7AEE94
:10151000494A00ED013A37EE203AC5ED005AC0EDD8
:10152000001A76EE021A36EE422A74EEA27A34EEF1
:10153000E27A73EE275A33EE673A74EE070A34EE16
:10154000474A49ED015A0AED013A35EE013A48EDB4
:10155000010A0EED014A35EE411A31EEC37A33EE3F
:10156000213A32EE414A31EE021A89ED007A8AEDD3
:10157000003ADDE91C651E9F1B980D9988ED004A15
:101580008EED001A3C448345FFF434AFBCF1400FAC
:10159000C0F0C9810398DDF8048000250127079277
:1015A0000E9380B206900898C0EBC000C000059072
:1015B0000698049CCDF824800A97DFEDDE2A0544C6
:1015C00005EB850305EB45020B95D900D00004EB34
:1015D000C3030431043004EB010E04EB451104EBAA
:1015E000000CC5EBC50091ED000A04EB0511DCED24
:1015F000006AC446DEED005ADDF81C808DED1A0A43
:1016000091ED000A04EBC5018DED190A91ED000A78
:1016100004EBC001C00004308DED180A91ED000A02
:1016200004EB021120448DED170A91ED000A11011F
:1016300004EBC20204318DED160A93ED000AEB00B3
:1016400004EB01096901043304318DED150A92EDB3
:10165000000A2A012344043222440C448DED140A6A
:1016600094ED000A8DED130A92ED000A8DED120A39
:1016700093ED000A3B468DED110A90ED000A8DEDC9
:10168000100A99ED000A8DED0F0ADDE90C15059F92
:101690001D980CEB060B0CEB01090CEB05020CEB97
:1016A000070E9CED02DA9CED03EADDED1A3ADDED62
:1016B000134A1C9E9BED02FADEED027A92ED029A2D
:1016C00099ED02BA0CEB000A0E989AED02CA7DEE73
:1016D0000FBA0CEB00040CEB080090ED028A94EDBD
:1016E00002AA7CEE0BAA7BEEAADA78EE278A7AEEC3
:1016F000099A78EE677A3AEE498A79EEA8CA38EE06
:10170000670A78EE277A79EEE88A7DEEACEA7DEE1C
:10171000ECCA20EE220A67EEA27ACCED02EA63EE72
:10172000AC0A64EEACCADBED03DA9EED039A90EDF1
:1017300003AAD2ED03EAD4ED03FA99ED031A9AED68
:10174000032A32EE013A3EEE2D4A7AEE099A3FEE36
:10175000AE8A32EE411A38EE295A34EE036A34EE7C
:10176000433A38EE698A3BEEEA4A36EE457A36EE7F
:10177000055A3AEE496A3FEEEE9A39EE46AA64EE11
:10178000871A39EE066A23EE877ADDED124ADDED1F
:10179000193A8CED035A34EE085A3DEE4F9A34EE66
:1017A000484A26EE222A37EE6C6A30EEA17A73EEB2
:1017B000680A7CEE4B1A38EE833A3EEE6DCA2AEE8A
:1017C00022AA39EE008A39EE400A24EE85BA23EEC9
:1017D000A0DA23EE855A64EEA00ADDED0F4ADDEDB6
:1017E000163A8BED027A8BED036A31EE02EA31EEA6
:1017F000A77A31EE421A31EEE72A7CEE4A1A3DEE24
:101800004B6A30EE855A3CEE0ABA38EE0EFA38EEE4
:101810004E8A70EE017A30EE410A32EE211A64EE01
:10182000840A23EE83DA8AED025A23EE844ADDED40
:10183000183A24EE833A7BEE478A8AED036A37EE44
:101840000B7A3DEE605ADDED110A33EE043A23EED9
:10185000A86A23EE8FDA89ED023ADDED103A89EDC0
:10186000035A20EE8F4A60EEA80A36EE443A3DEE67
:10187000204ADDED170A23EE885A84ED024A84EDF2
:10188000033A20EE876A60EE880A23EE877A31EE0B
:10189000C28A30EE874ADDED150A36EE453A25EE6E
:1018A000A75A25EE887A8EED024A8EED033A26EE8F
:1018B000804A20EE886A60EEA70A36EE452A9DED42
:1018C000146A30EE873A82ED023A82ED032A26EE60
:1018D000015A26EE811A26EE000A30EE010A35EE94
:1018E000442A80ED020A80ED032A1E9884441F9842
:1018F00003441B988342FFF4CBAE0A9FDDF824809B
:1019000008980B9D013708F108088742FFF450AE94
:101910000398DDF820C09FED070AC00003901F98D0
:101920003F283FF649AD20B0BDEC108B01B0BDE8BB
:10193000F08F00BFF304353FC8B14FF4806141F22E
:10194000082201824FF40071C0F6010201804FF4B9
:10195000E071818148F69861426140F20802C0F668
:101960000001C0F60102C0E90121002000E0FF20D3
:1019700040B27047B0B1802142F20822018240217A
:10198000C0F6010201803821818149F218214261AB
:1019900041F20802C0F60001C0F60102C0E90121CF
:1019A000002000E0FF2040B27047C8B14FF4006152
:1019B00042F2084201824FF48061C0F601020180C8
:1019C0004FF4E161818145F63051426149F288224C
:1019D000C0F60001C0F60002C0E90121002000E0CD
:1019E000FF2040B27047B8B14FF4807144F2084212
:1019F00001828021C0F601020180D021818146F65A
:101A0000403142614BF28822C0F60001C0F600026C
:101A1000C0E90121002000E0FF2040B27047B0B1D2
:101A2000202144F6080201821021C0F60102018043
:101A30001421818146F6E04142614BF28862C0F692
:101A40000001C0F60002C0E90121002000E0FF20F3
:101A500040B27047C8B14FF4805144F68802018209
:101A60004FF40061C0F6010201804FF46E61818184
:101A700046F6085142614BF20872C0F60001C0F60A
:101A80000002C0E90121002000E0FF2040B27047C1
:101A9000C8B14FF4007148F6880201824FF480719A
:101AA000C0F6010201804FF4DC71818148F6C82143
:101AB00042614FF20872C0F60001C0F60002C0E9B0
:101AC0000121002000E0FF2040B27047B0B140216A
:101AD00049F2880201822021C0F6010201803021F2
:101AE000818148F6386142614FF60872C0F6000104
:101AF000C0F60002C0E90121002000E0FF2040B252
:101B00007047F0B581B00546008A14460E46002B9A
:101B10004FEA500028800ED02846314622461F4604
:101B200000F060F8284621463A46012301B0BDE89E
:101B3000F040FEF7E1BE2846314600220123FEF7C1
:101B4000DBFE28463146224601B0BDE8F04000F0F9
:101B5000A3B8B1F5007F0ADA7F2916DC202929D045
:101B600040293BD141F6CD21C0F600010847B1F52F
:101B7000006F14DAB1F5007F21D0B1F5806F2DD15F
:101B800041F63911C0F60001084780291CD0B1F593
:101B9000807F23D141F6E711C0F600010847B1F577
:101BA000805F16D0B1F5006F18D141F6AB11C0F6C9
:101BB0000001084741F61F21C0F60001084741F621
:101BC0009121C0F60001084741F67511C0F60001E9
:101BD000084741F65521C0F6000108474FF0FF3095
:101BE0007047000080B591ED001A91ED012A03883D
:101BF000B6EE000AD0F814E031EE423A31EE021AA5
:101C0000581E21EE001A23EE002A82ED001A82ED02
:101C1000012A08BF80BD01EBC000C3F1010C0832EE
:101C20000EF108030831043010ED011A91ED003A6D
:101C300090ED002A91ED014A93ED005A93ED016A6F
:101C400008381CF1010C03F1080301F1080133EE1F
:101C5000417A72EE040A34EE422A31EE031A27EE7C
:101C6000053A27EE064A25EE205A32EE042A20EEE7
:101C7000864A31EE431A32EE452A31EE441A21EEFD
:101C8000001A22EE002A82ED001A82ED012A02F1EA
:101C90000802C9D180BD000080B591ED011A91ED17
:101CA000000A0388D0F814E030EE002A31EE011A61
:101CB000B6EE000A01EBC300C3F1010C08310EF1CE
:101CC000080332EE413A32EE011A043821EE001ACE
:101CD00023EE002A82ED001A82ED012A083200BFAD
:101CE00091ED001A10ED013A91ED012A90ED004AB4
:101CF00093ED005A93ED016A1CF1010CA0F108006C
:101D000001F1080103F1080333EE417A74EE020A8F
:101D100032EE442A33EE011A27EE053A27EE064A40
:101D200025EE205A32EE042A20EE864A31EE031ABE
:101D300032EE452A31EE041A21EE001A22EE002A74
:101D400082ED001A82ED012A02F10802C8D180BD9D
:101D500010B50146806B026C12F0500F05D0806BFD
:101D6000C26CBDE8104008461047016C41F4007198
:101D7000016401688A6812F0405F17D18269AAB9CC
:101D8000CA6A12F4700F02D08A6852050ED44A68EB
:101D900022F020024A60016C21F480710164016C20
:101DA000C90403D4016C41F00101016400F0F3F9AE
:101DB00010BD10B5806B40210164416C41F00401FD
:101DC000416400F000FA10BD10B5806B00F0FAF924
:101DD00010BD4FF40C5110B5C4F201014A6822F451
:101DE00040324A604A6843681A434A6001684A6858
:101DF00022F480724A6001684A68036942EA032259
:101E00004A6001684A6822F040724A6001684A6884
:101E100083681A434A6001688A6822F400628A6013
:101E200001688A68C3681A438A60816A6FF07062C9
:101E3000D14201688A6822F070628A6001688A680B
:101E40000CD0836A1A438A6001688A6822F0405283
:101E50008A6001688A68C36A1A4301E022F040522E
:101E60008A6001688A6822F002028A6001688A68D2
:101E7000836942EA43028A60016A002901684A686C
:101E800012D042F400624A6001684A6822F460425B
:101E90004A6001684A684FF46044436ACFF6FF74B1
:101EA00004EB43331A4301E022F400624A60016804
:101EB000CA6A22F47002CA620168CA6A838B00246B
:101EC000CFF6F07404EB03531A43CA6201688A68C0
:101ED00022F400728A6001688A68036B42EA432236
:101EE0008A6001688A6822F480628A6001688A6870
:101EF000406942EA8020886010BDFEE749F22C501C
:101F0000C2F2010000F059BA01681823CAB2103AAF
:101F1000B2FBF3F245F63843C0F600039B5C6FF367
:101F20000901C365032A00D9091D81650846704768
:101F300010B5014600208B698A6A4FF0C07453B116
:101F4000B3F5005F15D072B1012A0CD0022A0AD075
:101F5000032A09D104E01AB1012A06D0022A03D1CA
:101F6000C96AC90100D5012010BDC96AA142FAD0D1
:101F700010BD002AF7D0012AF2D0022AF3D0032A9A
:101F8000F3D010BD30B50468256825F480252560A0
:101F9000046863608368402B036803D0996000681D
:101FA000C26030BD9A600068C16030BD704730B516
:101FB00043F63000C4F2020087B00168002441F00B
:101FC00004010160016801F004010591016841F01C
:101FD00001010160016801F001010591016841F012
:101FE000020101600068012500F0020005908220D6
:101FF0000090CDE901544FF400606946C4F202003C
:10200000039400F065FB40F213700090CDE9015499
:1020100000206946C4F20200039400F059FB40F22C
:1020200039400090CDE901544FF480606946C4F214
:102030000200039400F04CFB07B030BD78B50024DB
:10204000009490F83C20012A19D0012280F83C200D
:102050000A6807230568092A13D9EE680A3A02EBD1
:10206000420293409E43EE600A788B680A3A02EB84
:10207000420293400268D5682B43D36010E00220EF
:1020800078BD2E6902EB420293409E432E610A788E
:102090008B6802EB42029340026815692B4313617F
:1020A0004A681F23072A13D205686E6B521E02EB83
:1020B000820293409E436E630B790A885B1E92B244
:1020C00003EB83039A4003685D6B2A435A6327E05E
:1020D00005680D2A12D22E6BD21F02EB82029340AA
:1020E0009E432E630B790A88DB1F92B203EB8303B6
:1020F0009A4003681D6B2A431A6311E0EE6A0D3A99
:1021000002EB820293409E43EE620B790A880D3BFC
:1021100092B203EB83039A400368DD6A2A43DA62D2
:102120004FF4005305684FF40C52C4F20103C4F29B
:1021300001029D4206D10D68122D03D1556845F468
:102140008005556005689D4221D112250B68C1F2BA
:102150000005AB4201D0112B19D1536843F40003A1
:1021600053600968A94212D141F68451C2F20101BB
:10217000096844F24022C0F20F02B1FBF2F101EB18
:102180008101490000E0491E00910029FBD180F83F
:102190003C40002078BD0068A0F18041B1F590314D
:1021A0000FD140F21000C2F2000041F66C71C2F291
:1021B000010102688A4201D101F52071016001210B
:1021C000416070477047704770B504004FF00005DC
:1021D00003D0206C002610B107E0012070BD6664BA
:1021E00084F83C60204600F019F8206CC00610D43A
:1021F000206C20F4885040F0020020642046FFF755
:10220000E8FD6664206C20F0020040F001002064CC
:1022100000E0012584F83C60284670BD70B5064694
:10222000006886B0A0F18041B1F590313CD143F611
:102230004400C4F202000025016841F4807101608D
:102240000068694600F48070059002200090032029
:10225000CDE901054FF48060C4F2020000F038FAC5
:1022600046F21040C4F2020049F22C54C2F20104BA
:10227000C4E900050015A560C4E903508000606151
:102280008000A0618011E0614002C4E90805204699
:1022900000F064F930B17B2145F60050C0F6000033
:1022A00002F0ECF8B463A66306B070BDF8B50E4654
:1022B00000210446009190F83C00012807D001203D
:1022C00084F83C0020688368DB0702D017E0022016
:1022D000F8BD836843F00103836041F68450C2F285
:1022E0000100006844F24023C0F20F03B0FBF3F09A
:1022F00000EB400000E0401E00900028FBD1206869
:102300008368DB0757D0236C23F0010323F4C063F9
:1023100043F4807323644068400505D5206C20F4A5
:10232000005040F480502064206CC00404D5606CE0
:1023300020F00600606400E061644FF40C5584F8FE
:102340003C10C4F2010541F65150C0F60000A16BEB
:10235000C86341F6C950C0F60000A16B086441F69D
:10236000B350C0F60000A16BC86421686FF0220072
:1023700008602068416841F08061416020688168A0
:1023800041F4807181602168134632464C31A06B64
:1023900000F04EF96868C006206804D0A0F18041C2
:1023A000B1F5903107D1816811F0405F03D18168A8
:1023B00041F0804181600020F8BD2DE9F8430446DA
:1023C0004FF0000941F68450C2F20100CDF80090B0
:1023D00000684FF41651B0FBF1F7A56D2E6894F824
:1023E0005C10082000FA01F131420FD021680A6820
:1023F00052070BD50A6822F004020A6094F85C10B8
:102400008840A860606D40F00100606594F85C1041
:102410004FF0010808FA01F0304208D021684969FC
:10242000090604D5A860606D40F00200606594F86C
:102430005C1004208840304208D021680968890770
:1024400004D5A860606D40F00400606594F85C10ED
:1024500010208840304218D021680968090714D537
:10246000A86020680168490304D50068000308D506
:10247000A16C07E00168C90503D4016821F00801D7
:102480000160216C09B12046884794F85C10202037
:102490008840304231D021680968C9062DD5A8602E
:1024A00094F8350005282068016806D0490347D50F
:1024B000006800031DD4616C1CE021F0160101606E
:1024C0002068416921F080014161206C08B9A06C4D
:1024D00020B12068016821F00801016094F85C10C7
:1024E0003F208840A86084F8349084F83580216DBE
:1024F0001FE0E16B09B120468847606D00282BD0B2
:10250000606DC00714D0052084F83500206801688C
:1025100021F0010101600098401C0090B84203D8EE
:1025200020680068C007F6D184F8349084F83580BC
:10253000E16C002910D001B02046BDE8F043084707
:102540000168C905D5D4016821F01001016084F843
:10255000349084F83580CCE7BDE8F8832DE9F0416C
:10256000044600F091F906465CB1002584F8345029
:10257000022084F835002068016821F00101016023
:102580000DE00120BDE8F08100F07EF9801B0528F8
:1025900005D920206065032084F83500F2E7206823
:1025A0000068C007F0D12268116848F23F00CFF2FE
:1025B00010000140D4E901031843D4E90336334342
:1025C000184363691843A3691843E3691843236AEE
:1025D00018430843616A042903D1D4E90B13194352
:1025E0000843106020684069666A20F007013046A1
:1025F0000E43012704280CD1A06A0643E06A40B1CB
:102600002046FFF795FC20B14020606584F83570C6
:10261000B7E7206846612046FFF776FC94F85C2017
:102620003F2191408160656584F835700020A9E7FD
:102630002DE9F0410446866D90F83400002501280C
:102640000DD0012084F8340094F835700020012F5B
:1026500007D084F8340002252846BDE8F081022026
:10266000FBE7022784F8357060652046FFF78AFC97
:1026700094F85C103F208840B0602068016841F009
:10268000160101602068416941F080014161206CC0
:1026900020B12068016841F00801016020680168EC
:1026A00041F001010160D7E770B5044600F0ECF895
:1026B0000546601C05D041F67850C2F20100007852
:1026C000044400F0E1F8401BA042FAD370BD0000C2
:1026D0002DE9F84F4FF4705BC4F2010B00224FF06C
:1026E00001084FF0030A4FF00F090BF1040E00BF71
:1026F0000B6808FA02F42340A3427DD14D68022DF5
:1027000001D0122D0ED1D50800EB850CDCF820503D
:102710005607F70E09FA07F6B5430E69BE402E4379
:10272000CCF82060066855000F790AFA05FC07F01E
:10273000030726EA0C06AF40374307604E68012EB8
:1027400005D0022E03D0112E01D0122E0ED1866894
:10275000CF6826EA0C06AF40374387604668A64339
:102760000C79C4F30014944034434460C4688E6808
:1027700024EA0C04AE402643C6604C68E4006AD5E7
:1027800043F64404C4F20204256845F480452560FC
:10279000246822F0030505F1804504F4804405F522
:1027A00098350094D5F808489607370F09FA07F6C8
:1027B000B443A0F18046B6F5003652D0A0F1804671
:1027C000B6F501364FD0A0F18046B6F502364CD0B2
:1027D000A0F18046B6F5033649D0A0F18046B6F5A3
:1027E000043646D0A0F18046B6F5053643D0A0F1B8
:1027F0008046B6F5063600E02DE03ED00726BE4006
:102800002643C5F80868DBF800405D464E689C43E7
:10281000F60300D51C432C60DEF8004075464E6878
:102820009C43B60300D51C432C6043F60845C4F214
:1028300001052C684E689C43F60200D51C432C60B1
:1028400043F60C45C4F201052C684E689C43B60261
:1028500000D51C432C60521C102AFFF449AFBDE880
:10286000F88F0026CBE70126C9E70226C7E7032633
:10287000C5E70426C3E70526C1E70626BFE70AB178
:10288000816170470904FBE741F67850C2F201000C
:102890008068704741F67850C2F201008168027882
:1028A0001144816070474FF4705010B5C4F20200BB
:1028B000016841F400710160016841F480610160C8
:1028C000016841F480710160032000F098F8002055
:1028D00000F004F800F023F8002010BD70B50446A5
:1028E00041F67855C2F2010528784FF47A71B1FBB0
:1028F000F0F041F68451C2F201010968B1FBF0F039
:1029000000F05EFB48B9102C07D200222146501E71
:1029100000F054F800206C6070BD012070BD43F6DB
:10292000440008B5C4F20200016841F4804101602E
:10293000006800F4804000904FF46150C4F202003F
:10294000016841F080510160006800F08050009003
:10295000072000F054F8002211466FF00B0000F041
:102960002DF8002211466FF00A0000F027F800222F
:1029700011466FF0090000F021F800221146501FA7
:1029800000F01CF800221146101F00F017F800227A
:102990001146901E00F012F80022BDE808401146D2
:1029A000501E00F00BB800F01F02012191404009B9
:1029B000800000F1E020C0F800117047F0B44EF63E
:1029C0000C53CEF200031B680C46C3F30223C3F181
:1029D0000705042D00D90425191D072901D200235C
:1029E00000E0DB1E012606FA05F1491E2140994050
:1029F0009E40761E16403143F0BC01F02DB94EF6D4
:102A00000C52CEF2000200F0070110684FF6FF03EF
:102A1000184040EA012040F0FD7040F080601060F6
:102A2000704700002DE9F0470E4605006DD04FF4C9
:102A30007058C4F20208D8F80000F7B200F00F0096
:102A4000B04207D288F80070D8F8000000F00F00FC
:102A5000B0425AD1286843F608048107C4F2020440
:102A600012D5400703D5206840F4E0502060287854
:102A7000000703D5206840F4604020602068A96802
:102A800020F0F000084320602878C00730D0686844
:102A90004FF46051C4F20201012812D0022813D071
:102AA000032811D00968890700292EDA216821F04E
:102AB000030101432160FFF7E7FE814641F2883AB6
:102AC0000FE009688903EFE709688901ECE700BFB7
:102AD000FFF7DAFEA0EB0901514502D90320BDE85A
:102AE000F0872068696800F00C00B0EB810FEFD12F
:102AF000D8F80010404601F00F01B14207D9077025
:102B0000006800F00F00B04201D00120E7E728780C
:102B1000400705D52068E96820F4E05008432060AC
:102B20002878000706D52068296920F4604040EA2B
:102B3000C100206000F03FF82168C1F3031145F6A1
:102B40004042C0F60002515CC84041F68451C2F2D6
:102B5000010108600020FFF7C1FE0020BFE741F639
:102B60008450C2F201000068704741F68450C2F2FE
:102B7000010043F60801C4F2020100680968C1F3CC
:102B8000822145F65042C0F60002515CC8407047B1
:102B900041F68450C2F2010043F60801C4F202017A
:102BA00000680968C1F3423145F65042C0F60002A0
:102BB000515CC840704743F6080010B5C4F20200EB
:102BC000006810F00C024FF41050C0F2F40017D05F
:102BD0004110042A13D043F60404C4F20204082A64
:102BE0000FD00C2A0CD12268236802F03F025B024E
:102BF00021D52068C0F38810A0FB010120E0084621
:102C000010BD2268236802F03F025B0205D52068F0
:102C1000C0F38810A0FB010104E02168C1F3881112
:102C2000A1FB00010023FDF7E9FA2168C1F301418E
:102C3000491C49000AE02168C1F38811A1FB000189
:102C40000023FDF7DBFA2168C1F30271B0FBF1F05C
:102C500010BD00002DE9F84F054643F6080B00783B
:102C6000C4F2020BABF10407C007A7F1040451D072
:102C7000DBF800105846C1F3810101290FD001682B
:102C8000C1F38101022902D13968490207D40068E1
:102C9000C0F38100032809D13868400206D52068B6
:102CA000800337D56868002874D033E06868B0F5D1
:102CB000803F10D0B0F5A02F206810D020F48030D5
:102CC0002060206820F4802020606868A8B1FFF7A9
:102CD000DBFD06460DE0206840F48030F4E740F468
:102CE00080202060F7E700BFFFF7CEFD801B64283F
:102CF00073D820688003F7D50CE0FFF7C5FD0646C2
:102D000005E000BFFFF7C0FD801B6428F0D82068F5
:102D10008003F7D428784FF0000980074FF0000AAD
:102D2000C4F2472946D5DBF80010584611F00C0FC5
:102D30000FD00168C1F38101022902D1396849022B
:102D400007D50068C0F38100032809D13868400224
:102D500006D42068800715D5E86801281AD111E04B
:102D6000E868C0B10120C9F80000FFF78DFD0646F4
:102D700005E000BFFFF788FD801B0228B8D8206857
:102D80008007F7D52068296920F0F80040EAC100E3
:102D900020600FE005E1C9F800A0FFF775FD0646C9
:102DA00005E000BFFFF770FD801B022815D82068E2
:102DB0008007F7D42878000729D54FF4686043F6D8
:102DC00074086969C4F24720C4F2020881B1012184
:102DD0000160FFF759FD064605E075E0FFF754FD79
:102DE000801B022870D8D8F800008007F6D50EE0C6
:102DF000C0F800A0FFF748FD064604E0FFF744FDD9
:102E0000801B022860D8D8F800008007F6D4287804
:102E1000400775D54FF46150C4F202004FF000082E
:102E20000068C0000DD44FF46150C4F20200016884
:102E300041F08051016000684FF0010800F08050BF
:102E400000904FF4E046C4F200063068C00510D48C
:102E5000306840F480703060FFF716FD009005E0A8
:102E6000FFF712FD0099401A02282DD83068C005DE
:102E7000F6D5A86843F67006C4F2020601280FD002
:102E80000528306810D020F001003060306820F054
:102E900004003060A868C0B1FFF7F6FC00900FE0B6
:102EA000306840F00100F4E740F004003060F7E7DC
:102EB000FFF7EAFC0099411A41F28830814268D854
:102EC00030688007F4D510E063E0FFF7DDFC009088
:102ED00008E000BFFFF7D8FC0099411A41F28830A2
:102EE000814256D830688007F4D4B8F1000F07D07B
:102EF0004FF46150C4F20200016821F0805101607A
:102F0000A869A8B3DBF80010C1F38101022948D0F9
:102F10000228C9F860A003D0FFF7B6FC05463BE0E5
:102F2000FFF7B2FC064604E0FFF7AEFC801B022868
:102F30002FD820688001F7D4F5E907010843E96834
:102F400000224908CFF6FF7202EB0141AA6841EA6C
:102F500082110843297C40EA0160297D40EA017022
:102F600038600120C9F86000FFF78EFC054606E0D6
:102F700015E000BFFFF788FC401B022809D8206835
:102F80008001F7D50BE000BFFFF77EFC401B022855
:102F900002D90320BDE8F88F20688001F4D4002016
:102FA000F8E70120F6E74FF0E0210428086903D094
:102FB00020F004000861704740F00400FAE7704711
:102FC00010B5401EB0F1807F01D3012010BD4FF03D
:102FD000E02460610F21601700F03EFE0020A06138
:102FE00007202061002010BD10B5FFF7E8FF10BDDD
:102FF00030B590F83820012A20D0012280F83820FE
:10300000022380F8393003685C6824F070045C6047
:1030100003685C680D682C435C6003689C6824F05E
:1030200080049C6003689C6849680C439C6080F83D
:103030003920002180F83810084630BD022030BD0C
:1030400010B5040003D094F8390010B107E0012056
:1030500010BD002084F83800204600F00CF8022053
:1030600084F83900211D206801F015F8012084F84A
:103070003900002010BD08B50068B0F1804F0BD1B9
:103080004FF46150C4F20200016841F00101016097
:10309000006800F00100009008BD022180F839109E
:1030A00001680A6842F001020A60012180F83910C3
:1030B0000020704770B5044690F83800012817D0FA
:1030C000012584F83850022084F83900206882688D
:1030D00022F0770222F47F4282600868502837D0BD
:1030E0000DDC202859D005DC88B3102841D151E0EF
:1030F000022070BD302853D040283AD13FE06028EC
:103100002ED070280BD0B0F5805F03D0B0F5005FF3
:103110002FD110E02068816821F0070115E0CB680D
:10312000D1E90121206801F01AF82168886840F08F
:10313000770088601DE0CB68D1E90121206801F0AB
:103140000EF82068816841F48041816011E01EE042
:10315000CA684968206801F014F85021206806E028
:10316000CA684968206801F01DF86021206801F0F4
:1031700000F884F83950002084F8380070BDCA681F
:103180004968206800F0FDFF40212068EFE700213A
:103190002068ECE710212068E9E720212068E6E7B5
:1031A00030212068E3E770B5040004D094F83900BA
:1031B000002510B106E0012070BD84F8385020468B
:1031C00000F022F8242084F839002068C16821F436
:1031D0000051C160204600F0F7FF2068016921F42A
:1031E000904101612068416921F02A014161206814
:1031F000C16841F40051C160E563202084F83900C2
:1032000084F83A00002070BD00B5006887B0A0F1D6
:103210008041B1F588411BD14FF46150C4F20200E6
:10322000016841F4003101600068694600F4003033
:1032300005900C20009002200190012002900320B4
:103240000390072004900020C4F20200FFF740FA28
:1032500007B000BDFEE7000070B5F02040F20004AA
:10326000C2F20004A0804FF4A070E08000206070E3
:1032700020816081042020704FF6FF70E081A081E2
:103280000120A070FEF793FE00F0A6FA4FF48060D4
:1032900000220121C4F20200FFF7F1FA002545F6F1
:1032A0007036C0F6000600BF06EB450136F8150083
:1032B0004988FF2811D000F0ABFBAD1CADB2642DE6
:1032C000F2D3607800F040FBBDE87040EF220021AF
:1032D00040F23F13084600F0D0BA084602F021FA47
:1032E000EBE72DE9F84F9B468846814640F2000007
:1032F000C2F20000B0F904300B9D994543DAB0F9F1
:10330000060080453FDA05EB450109EB4100012845
:1033100039D408EBC500012835D4002402EB820A19
:1033200001E0052C2BD00AEB040145F6F000C0F6B5
:103330000000475C0026F8070CD0012D02D0CDF824
:1033400000B00DE008EB060001B209EB040000B28A
:103350005A4621E00A9858450CD0012D15D000900E
:1033600006FB058001B204FB05902B4600B21A460D
:1033700000F05FF8761C7F0876B2082EDBDB641C59
:1033800064B2062CCDDBBDE8F88F08EB060001B275
:1033900009EB040000B20A9A00F001F8EAE72DE90F
:1033A000F04117460D46040041D4002D3FDBF02CC0
:1033B0003DDAB5F5A07F3ADA4FF48066C4F2020632
:1033C000002201213046FFF75AFA40F20000C2F213
:1033D00000004078012804D0022808D0032813D127
:1033E0000CE02046C5F1EF010CB205460CE0C4F13B
:1033F000EF0004B2A5F23F15684204E02046A0F2B7
:103400003F102C46404205B2A1B2202000F000FB44
:10341000A9B2212000F0FCFA3946222000F0F8FA87
:103420003046BDE8F04101221146FFF728BABDE859
:10343000F0812DE9F0411C46DDF81880151E44DDB1
:10344000002C42DD40F20006C2F20006B6F904C0CC
:1034500060453ADAB6F90670B94236DA4219521EB8
:1034600012B2002A31DB0B195B1E1BB2002B2CDBC6
:10347000002802DA284405B20020002902DA21449B
:103480000CB20021624506DBACF1010C0FFA8CF2A4
:10349000151A6D1C2DB2BB4204DB7F1E3BB25C1AB9
:1034A000641C24B200F0E9F915FB04F1404600F079
:1034B0003BF8B6F90420B6F90630BDE8F04100212A
:1034C000521E08465B1E00F0D8B9BDE8F08170B509
:1034D000064640F20000C2F200004078012808D001
:1034E00040F23F14022807D003284FF0000501D115
:1034F00003E0EF25002400E0EF254FF48060002278
:103500000121C4F20200FFF7BAF92946202000F099
:103510007FFA2146212000F07BFA3046BDE870405A
:103520004FF49631AFF300802DE9F0474FF48069F6
:103530000C464FEA1028C6B2C4F20209002201214B
:103540004846FFF79CF90025C4F20205002210212D
:103550002846FFF794F9002000F00EFA222000F030
:103560000BFA012210212846FFF789F9404600F0A6
:1035700003FA304600F000FA671EC7F38F14B04517
:103580007DD0CFE01026002202212846FFF777F9F0
:10359000012002F0C6F8012202212846FFF76FF948
:1035A000012002F0BEF8002202212846FFF767F949
:1035B000012002F0B6F8012202212846FFF75FF948
:1035C000012002F0AEF8002202212846FFF757F949
:1035D000012002F0A6F8012202212846FFF74FF948
:1035E000012002F09EF8002202212846FFF747F949
:1035F000012002F096F8012202212846FFF73FF948
:10360000012002F08EF8002202212846FFF737F948
:10361000012002F086F8012202212846FFF72FF947
:10362000012002F07EF8002202212846FFF727F948
:10363000012002F076F8012202212846FFF71FF947
:10364000012002F06EF8002202212846FFF717F948
:10365000012002F066F8012202212846FFF70FF947
:10366000012002F05EF8002202212846FFF707F948
:10367000012002F056F801220221284600E009E06C
:10368000FFF7FDF8012002F04CF8761E16F0FF0659
:103690007FF479AF641EA4B2BFF474AF07F03F04A7
:1036A0001FE0002202212846FFF7E9F8012002F07E
:1036B00038F8012202212846FFF7E1F8012002F044
:1036C00030F8002202212846FFF7D9F8012002F045
:1036D00028F8012202212846FFF7D1F8012002F044
:1036E00020F8641EE4B2DCD22BE01025404600F046
:1036F00043F9304600F040F9404600F03DF93046CD
:1037000000F03AF9404600F037F9304600F034F95D
:10371000404600F031F9304600F02EF96D1E15F0EC
:10372000FF05E3D1641EA4B2DFD207F03F0405E039
:10373000404600F021F9304600F01EF9641EE4B264
:10374000F6D24846BDE8F04701221146FFF797B888
:103750000FB47CB507AA41F68C50C2F2010006995D
:1037600000F08EFE002641F68C55C2F2010540F2B3
:103770000004C2F2000426E00A2A2AD00D2A21D031
:103780002178E089CDE90001A389B4F90A10B4F9E0
:103790000800FFF7A6FD2178228901EB410002EB2A
:1037A000400000B22081A27862B1B4F90430A1EBEC
:1037B000810203EB4202824204DA608900EBC1001D
:1037C000608126816D1C2A78002AD5D17CBC5DF8E9
:1037D00014FB60892178F1E770B54FF4806601220F
:1037E000C4F2020611463046FFF749F80025C4F23C
:1037F0000205012202212846FFF741F80122114665
:103800002846FFF73CF84FF40064C4F2020400229B
:1038100002212046FFF733F8642001F082FF0122E5
:1038200002212046FFF72BF8002201213046FFF746
:1038300026F8002210212846FFF721F8002000F08A
:103840009BF80024002202212846FFF718F80120E7
:1038500001F067FF012202212846FFF710F801203E
:1038600001F05FFF641CE4B2032CEBD33046BDE8EB
:10387000704001221146FFF702B82DE9F0474FF4DE
:10388000806A17460C460546C4F2020A1E4600220C
:1038900001215046FEF7F3FF40F20000C2F20000A3
:1038A0004078012805D002280DD0032819D0A94658
:1038B00007E020462C46C6F1EF053E46C0F1EF0773
:1038C000B946A04618E02846C7F1EF05C0F1EF075A
:1038D0002046A6F23F167442A0F23F104642B94677
:1038E00009E028462546A7F23F177C423746A0F25A
:1038F0003F104642A946B046A9B2502000F088F8D1
:10390000B9B2512000F084F8A1B2522000F080F842
:10391000B1B2532000F07CF81FFA89F1202000F0AA
:1039200077F81FFA88F1212000F072F85046BDE8C0
:10393000F04701221146FEF7A2BF40F20002C2F298
:10394000000210815181704710F0030340F2000023
:10395000C2F2000043704FF0F0014FF4A07208D0A3
:10396000012B03D0022B04D0032B01D18280C18014
:1039700070478180C280704710B50024C4F20204F1
:1039800061694FF6FF02114000F0010241EA422155
:1039900000F0040241EA022100F0800241EA420103
:1039A000616140F21442C4F2020211684FF6C7335B
:1039B000194000F00803194300F0100341EA4301E5
:1039C000102303EA5003194300F0400341EA0311B6
:1039D000116040F61401C4F202010A684FF67F73C9
:1039E0001A4000F0020042EA801008600022022122
:1039F0002046FEF744FF012001F093FE0122022140
:103A00002046FEF73CFFBDE81040012001F089BED2
:103A10002DE9F04100260C46050AC7B2C4F20206A1
:103A2000002210213046FEF72AFF2846FFF7A4FFA8
:103A30003846FFF7A1FF250AE4B2012210213046E3
:103A4000FEF71DFF2846FFF797FF2046BDE8F0412F
:103A5000FFF792BF7FB54FF40051C4F2010149F264
:103A6000E440C2F2010001604FF480310024C0E95B
:103A700001140461846109030462C1620125C56106
:103A8000056345614FF0C061C4608162FEF79CFB35
:103A900030B14A2145F60050C0F6000000F0EEFCBF
:103AA0000920CDE900056946029449F2E440C2F2DA
:103AB0000100FEF7C3FA002806D0542145F6005055
:103AC000C0F6000000F0DAFC7FBD43F6300008B518
:103AD000C4F20200016841F4800101600068002224
:103AE00000F48000009011463820FEF767FFBDE823
:103AF00008403820FEF757BF30B543F63000C4F217
:103B0000020087B00168002441F0040101600168EF
:103B100001F004010591016841F080010160016834
:103B200001F080010591016841F001010160016827
:103B300001F001010591016841F002010160006896
:103B4000002500F00200C4F20205059000222021A9
:103B50002846FEF794FE4FF4005000900020C1F27A
:103B60002100CDE901044FF400606946C4F202006F
:103B7000FEF7AEFD202000900120CDE9010469464A
:103B800028460394FEF7A4FD07B030BD10B586B0FB
:103B90004FF0804149F28C50C2F201000024C0E98C
:103BA000001441F28141C0E902410461FFF748FA83
:103BB00030B13E2145F61050C0F6000000F05EFC2A
:103BC0004FF480506946009049F28C50C2F20100D7
:103BD000FFF770FA30B1442145F61050C0F60000EE
:103BE00000F04CFC2020CDE9040404A949F28C50DB
:103BF000C2F20100FFF7FCF9002806D04B2145F680
:103C00001050C0F6000000F039FC06B010BD10B531
:103C10004FF48841C4F2000149F2C850C2F20100D9
:103C200001604FF4E1314160002181600C22C160EC
:103C3000C0E904128161C161FFF7B5FA002808D01C
:103C4000422145F62050C0F60000BDE8104000F0CB
:103C500015BC10BDFEE770470907090E002806DAFB
:103C600000F00F0000F1E02080F8141D704700F113
:103C7000E02080F8001470477047704710B5FEF7D9
:103C800009FEBDE81040FFF7AFB930B54FF4615001
:103C9000C4F2020093B00168002541F08051016038
:103CA000006800F0805012904FF4E040C4F2000031
:103CB000016821F4404141F4804101600068022420
:103CC00000F44040129001200390102000940694CC
:103CD0000490CDE907504FF4A87009900420CDE975
:103CE0000A0468460C94FEF7B5FF00B1FEE70DA983
:103CF0000F2081E831004FF48050CDE910050221FA
:103D00000DA8FEF78FFE00B1FEE7FEF728FF4FF487
:103D10007A71B0FBF1F0FFF753F90420FFF743F994
:103D200000221146501EFEF749FE13B030BD4EF67C
:103D30008850CEF20000016841F4700101604FF438
:103D40006050C4F20200016841F00101016043F6D5
:103D50000802C4F2020200211160026822F410225B
:103D600022F08072026043F21002031DC2F2004290
:103D70001A60026822F48022026043F60C00C4F24A
:103D8000020001604EF60851CEF2000158060860AC
:103D900070472DE9F04F91B0002448F62466C2F236
:103DA000010664200125A6F6387A092741F68C61C0
:103DB000C2F20101CDE90E6408AA82E89204CDE9BD
:103DC0000C5003202821CDE904450695102242F627
:103DD000EC33C2F20003CDE900320795CDE90210C1
:103DE0002B46642241F64C40C2F2000001F080FAFA
:103DF0004FF4C861504601F02BFB3220A6F6F801C3
:103E00004FF0070B41F69C62C2F20102CDE90C5063
:103E1000CDE90E6408AB0B9183E814084FF002085B
:103E20004FF00409CDE90598182043F26C31C2F235
:103E30000001CDE90010CDF81C800295CDE9037496
:103E4000102364220121504601F052FA4FF496618A
:103E5000A6F6F80001F0FCFA322041F6B462C2F294
:103E60000102CDE90E6408A9CDF82CA081E8140860
:103E7000CDE90C50CDE90595182044F2EC01C2F2D1
:103E80000001CDE9001007950295CDE903740346C2
:103E900032220121A6F6F80001F02AFA4FF49661C9
:103EA000504601F0D5FA1920A6F6F80141F6CC6289
:103EB000C2F20102CDE90E64CDE90C500B9108ABC2
:103EC000202183E814080494CDE9059845F22C508C
:103ED000C2F20000CDF81C808DE8A3001823322226
:103EE0000121504601F004FA4FF44871A6F6F8009B
:103EF00001F0AEFACDE90E6408A94FF0050BAAF562
:103F0000C042CDF82CA081E814081920CDE90C504E
:103F1000CDE90595202047F22C01C2F20001CDE940
:103F2000001007950295CDE903740346192201217B
:103F3000A6F6F80001F0DCF94FF44871504601F0A4
:103F400087FA0D20CDE90C50A6F6F801062041F6BF
:103F50000C72C2F20102CDE90E64CDE90824CDE96C
:103F60000A01CDE90598CDF81C804FF0300849F2E0
:103F70002C41C2F20001CDE900180295CDE903748D
:103F8000202319220121504601F0B2F94FF41C718F
:103F9000A6F6F80001F05CFA0D2041F63C72C2F280
:103FA0000102CDE90E6408A9CDF82CA081E814081F
:103FB000CDE90C50CDE905954CF62C21C2F200015B
:103FC000CDE9001807950295CDE903740246302328
:103FD0000121A6F6F80001F08BF94FF41C71504650
:103FE00001F036FA40F21005C2F20005514601F523
:103FF0004866AC6004EB8402002002EBC40200EBD4
:10400000400304EB03131718CB5C401CF3550D2839
:10401000F5DB641C302CEDDBE860002048F6DC5456
:10402000C2F20104A860221800EB800101EBC0007D
:1040300030440D21FDF77EF9A868401CA8603028A7
:10404000F1DB48F62461C2F20101A1F1180241F648
:104050006C53C2F201030620CDF800B0CDE9010394
:10406000CDE903210C23302241F62C31C2F20101AB
:1040700048F6DC50C2F2010001F0BCF948F61862C3
:10408000C2F201020C21A2F10C0001F0EEF911B014
:104090000020BDE8F08FF0B502680023C4F20103F0
:1040A0004FF480654FF400664FF440674FF480642E
:1040B0004FF0804CC4F20005C4F20006C4F20007C1
:1040C000C4F20104984209D0604507D0A84205D047
:1040D000B04203D0B84201D0A04204D122F0700E09
:1040E0004A6842EA0E02984227D0604525D0A8428D
:1040F00023D0B04221D0B8421FD0A0421DD0A0F1A1
:104100008045B5F5A03518D0A0F18045B5F5A235AC
:1041100013D0A0F18045B5F5A4350ED0A0F18045AF
:10412000B5F5C05509D0A0F18045B5F5E05504D0EE
:10413000A0F18045B5F5005503D122F44075CA6859
:104140002A4302608A68C2620A688262984201D089
:10415000A04201D10969016301214161F0BD10B59F
:10416000846842EA032224F47F440A4322438260A3
:1041700010BD826822F070020A4342F0070181609C
:10418000704710B5036A046A24F00104046284696C
:1041900024F0F00444EA021423F00A020A43846182
:1041A000026210BD10B5036A23F010030362836935
:1041B000046A23F4704343EA023224F0A00343EA82
:1041C00001118261016210BD2DE9F04101680446D0
:1041D000086920F44052E068104308612168C8680B
:1041E000236920F40372A068E5691843636922F427
:1041F00014422B4318431043C8602168486920F4D7
:104200004072A06910434861E2696425B2F5004F2D
:104210004FF4A0504FF480512268C4F20100C4F260
:1042200001014FF032083FD08A4201D082427CD156
:10423000FEF7AEFC00EBC00101EB001061688900E5
:10424000B0FBF1F6FEF7A4FC00EBC00101EB00109F
:1042500061688900B0FBF1F0B0FBF5F06FF0180178
:10426000484306EB800108EB0110B0FBF5F000F0CD
:10427000F006FEF78DFC00EBC00101EB0010616859
:104280008900B0FBF1F0B0FBF5F006EB0016FEF78D
:104290007FFC00EBC00101EB001061688900B0FBFE
:1042A000F1F7FEF775FCD2E08A4201D082423DD19F
:1042B000FEF76EFC00EBC00101EB001061684900E5
:1042C000B0FBF1F0B0FBF5F00601FEF761FC00EB8E
:1042D000C00101EB001061684900B0FBF1F7FEF787
:1042E00057FC00EBC00101EB001061684900B0FB16
:1042F000F1F0B0FBF5F06FF01801484307EB8001D7
:1043000008EBC100B0FBF5F000F0F80006EB40064A
:10431000FEF73EFC00EBC00101EB001061684900B4
:10432000B0FBF1F7FEF734FC3CE055E0FEF71DFC76
:1043300000EBC00101EB001061684900B0FBF1F037
:10434000B0FBF5F00601FEF710FC00EBC00101EB3D
:10435000001061684900B0FBF1F7FEF706FC00EBC6
:10436000C00101EB001061684900B0FBF1F0B0FB47
:10437000F5F06FF01801484307EB800108EBC1002E
:10438000B0FBF5F000F0F80006EB4006FEF7EDFBA1
:1043900000EBC00101EB001061684900B0FBF1F7D0
:1043A000FEF7E3FB00EBC00101EB00106168490080
:1043B000B0FBF1F0B0FBF5F06FF01801484307EBEC
:1043C000800108EBC100B0FBF5F000F007002168A8
:1043D00030448860BDE8F081FEF7C7FB00EBC00108
:1043E00001EB001061688900B0FBF1F6FEF7BDFB40
:1043F00000EBC00101EB001061688900B0FBF1F037
:10440000B0FBF5F06FF01801484306EB800108EBB4
:104410000110B0FBF5F000F0F006FEF7A6FB00EB94
:10442000C00101EB001061688900B0FBF1F0B0FB46
:10443000F5F006EB0016FEF798FB00EBC00101EB70
:10444000001061688900B0FBF1F7FEF78EFB00EB0E
:10445000C00101EB001061688900B0FBF1F0B0FB16
:10446000F5F06FF01801484307EB800108EB0110ED
:10447000B0FBF5F000F00F00A9E7FEE7FEE7000053
:1044800037B514460846064B6A46214600F094FBB1
:1044900004466946002000F026FF20463EBD00008D
:1044A000E75200080000000070B5D94B00242DED44
:1044B000020B2DED108BDDE91010984205DA20F08B
:1044C00000429A4201D809D141B19DED100BBDECDB
:1044D000108B02B0BDE8704000F07ABAB0F5801FD2
:1044E00026DA11430BD0002813DA012000F09CFAE1
:1044F000BDEC108B02B0BDE8704000F075BA022030
:1045000000F092FA00F04CFA51EC100B81F00041EF
:104510009EE06FF035049FEDC00B53EC102B9DED2A
:10452000100B51EC100BFBF741FFCDE910010846D1
:1045300004EB2051C0F31304B948A1F2FF31204429
:1045400000F4801080F07F6282F04052224301EB41
:1045500020559FEDB50B119253EC102B9DED100BD8
:1045600051EC100BFBF71CFF41EC180BA01CC0F327
:1045700013009FEDAFDB9FEDB0EBB14E7E440328FF
:104580006CD296ED000B51EC180B53EC102BFCF792
:1045900021F91DD1002D01BF96ED000BBDEC108B54
:1045A00002B070BD2846FCF7ECF841EC180B53EC58
:1045B0001D2BFBF7FBFE41EC190B53EC1E2B51ECB2
:1045C000180BFBF7F3FE53EC192BFBF748FE3FE00B
:1045D0009FED9D0B51EC180B53EC102BFBF7E6FEF7
:1045E0009FED9B1B53EC112BFBF7DDFE41EC190BF0
:1045F00053EC182B51EC180BFBF7D8FE53EC192B8E
:10460000FBF7D4FE41EC190B002D04BF53EC192B22
:1046100051EC180B1AD02846FCF7B3F841EC1A0BF2
:1046200053EC1D2BFBF7C2FE53EC192BFBF7BBFE23
:1046300053EC182BFBF7B4FE41EC180B53EC1E2B7C
:1046400051EC1A0BFBF7B2FE53EC182BFBF7A8FE4C
:10465000BDEC108B02B041EC100B70BD9FED7E0BDA
:1046600051EC180B53EC102BFBF7F9FD41EC100B40
:1046700051EC180B53EC102BFCF714F841EC190B10
:104680002846FCF77EF841EC1B0B53EC192B51EC40
:10469000190BFBF78BFE41EC1A0B714853EC1A2BEC
:1046A000261851EC1A0BFBF781FE41EC1F0B6D48ED
:1046B000C4F1510404F5D724B0EE4F0AF0EE6F0AAE
:1046C0000321784400F0EFF853EC1F2B51EC100B52
:1046D000FBF76CFE41EC1C0B6348B0EE4F0AF0EEAA
:1046E0006F0A0421784400F0DEF853EC1A2B51ECE9
:1046F000100BFBF75BFE344353EC1C2BFBF7AFFDB9
:1047000041EC1C0B002C4CDD9FED510B51EC180BB8
:1047100053EC102BFBF74AFE53EC182BFBF746FE2D
:1047200041EC1A0B55B353EC1D2B51EC1B0BFBF753
:104730003DFE41EC1D0B53EC1C2B51EC1A0BFBF70F
:104740008EFD53EC192BFBF731FE53EC1D2BFBF7C1
:1047500086FD53EC1A2BFBF726FE53EC182BFBF7C8
:104760001FFE41EC180B53EC1E2B51EC1B0BFBF7FF
:104770001DFE53EC182BFBF713FE69E753EC1C2BC3
:1047800051EC1A0BFBF76BFD53EC192BFBF70EFEEC
:1047900053EC1A2BFBF707FE53EC182BFBF703FE29
:1047A00056E735B353EC1D2B51EC1B0BFBF7FEFD0D
:1047B00041EC1A0B53EC1C2B51EC180BFBF7F0FDE2
:1047C00053EC192BFBF7F2FD53EC1A2BFBF7E8FD2A
:1047D00053EC182BFBF7E4FD41EC180B53EC1E2BAC
:1047E00051EC1B0BFBF7E2FD53EC182BFBF7D8FD4C
:1047F0002EE753EC1C2B51EC180BFBF7D1FD53ECBF
:10480000192BFBF7D3FD53EC182BFBF7CCFD1FE75F
:104810000000F07F00000000000000000000504396
:10482000645F090000000000000000000000F03F8D
:10483000763C7935EF39EA3D0000E0FE422EE63F56
:104840001017000000000000555555555555D53F2F
:10485000000000000000E03F0000000000000040F9
:1048600086EBF9FF921500008815000010B52DEDBC
:10487000028BB1EEC08A18EE100A20F00040C0F1A1
:10488000FF40C00F0AD010EE100A20F00040C0F127
:10489000FF40C00F04BF012000F0C6F8B0EE480A88
:1048A000BDEC028B10BD70B504462DED028B4D1E84
:1048B00000EBC500B0EE408AF0EE608A90ED000B90
:1048C00035F0060017D053EC182B51EC100BFBF70A
:1048D0006DFD41EC100B6D1E04EBC50090ED001B4F
:1048E00051EC100B53EC112BFBF7B9FC41EC100B06
:1048F00035F00600E7D1022D36D0042D1CD0062D50
:104900001CBFBDEC028B70BD53EC182B51EC100B8F
:10491000FBF74CFD94ED0A1B53EC112BFBF79FFCAE
:1049200053EC182BFBF742FD94ED081B53EC112BB5
:10493000FBF795FC41EC100B53EC182B51EC100BD2
:10494000FBF734FD94ED061B53EC112BFBF787FCB2
:1049500053EC182BFBF72AFD94ED040B53EC102BB2
:10496000FBF77DFC41EC100B53EC182B51EC100BBA
:10497000FBF71CFD94ED021B53EC112BFBF76FFCB6
:1049800053EC182BFBF712FD94ED001B53EC112B8D
:10499000FBF765FCBDEC028B41EC100B70BD000019
:1049A0009FED070B10B553EC102B9FED070B51EC4F
:1049B000100BFBF777FE41EC100B10BD0000000060
:1049C0000000000000000000000000000000F03FB8
:1049D00010B553EC102B51EC100BFBF740FC41ECE5
:1049E000100B10BD000000009FED050B10B553EC3F
:1049F000102B51EC100BFBF755FE41EC100B10BDCA
:104A0000000000000000000002E008C8121F08C1FA
:104A1000002AFAD170477047002001E001C1121F3F
:104A2000002AFBD170470000014908607047000070
:104A3000881D01202DE9FF5F82B00021DDE90430EF
:104A4000020DDDF840B0034318D044F61050A2F236
:104A5000FF3242431514119801281FD0A5EB0B001B
:104A6000401C5FEA000A4FF000064E4FDFF8389115
:104A7000B046504615D5CAF1000413E01198012440
:104A80004AA3012801D16FEA0B010298119AC0E9EB
:104A90000031C0E9024206B0BDE8F09FCBF1000052
:104AA000DFE704460021404A491842EB0450CDE9B3
:104AB000001012E0E00707D032463B464046494628
:104AC000FBF774FC8046894632463B461046194641
:104AD000FBF76CFC06460F466410002CEAD1DDE9BA
:104AE0000401DDE90023BAF1000F06DAFBF75EFCF2
:104AF00042464B46FBF75AFC05E0FBF7D3FD424626
:104B00004B46FBF7CFFD04460E460022284BFBF731
:104B100079FE03D84FF0FF30014607E00022254B15
:104B200020463146FBF79BFBFBF73CFE102409E0D7
:104B3000002C0ADB0A220023FBF760FB039B3032C8
:104B40001A55641E50EA0102F2D1641C039AC4F1A2
:104B500011031444119A012A03D0012208430DD1F4
:104B60000AE0084304D000204FF0110B119072E7C7
:104B7000A3EB0B056D1E0DE05B4504DD4FF000025D
:104B800005F1010504E003DA4FF00002A5F101058B
:104B9000002AECD002981199C0E90231C0E9004521
:104BA00079E70000000014400000F03F30000000F2
:104BB0000000F0430000E03F2DE9FF4F95B09B4619
:104BC0008946064600250FE2252877D1002427468E
:104BD000F84A0121059400E0044316F8013F203B08
:104BE00001FA03F01042F7D130782A2811D06FF083
:104BF0002F033078A0F13002092A16D8059A44F024
:104C0000020402EB820203EB42021044761C059080
:104C1000EFE759F8042B0592002A03DA504244F4D6
:104C20000054059044F00204761C30782E2816D1EA
:104C300016F8010F44F004042A280DD06FF02F025B
:104C40003078A0F13003092B09D807EB870302EB7A
:104C50004303C718761CF3E759F8047B761C3078B9
:104C60006C280FD006DC4C2817D068280DD06A2895
:104C700014D104E0742810D07A280FD10DE044F448
:104C800000140AE044F4801401E044F44014727803
:104C9000824202D104F58014761C761C3078662896
:104CA0000BD013DC582877D009DC002875D04528B4
:104CB000F6D04628F4D047281AD19DE118E06328A1
:104CC00035D0642879D0652812D195E1702873D049
:104CD00008DC6728F1D069286FD06E280DD06F28C6
:104CE00006D1B5E073282CD0752875D0782874D0FB
:104CF0005A46179990476D1C75E1C4F3025002287B
:104D000009D003280DD0D9F8001004280DD00D606B
:104D100009F1040967E1D9F80010EA17C1E9005266
:104D2000F6E7D9F800100D80F2E70D70F0E719F8FA
:104D3000041B8DF8001000208DF80100EA460120C8
:104D400003E059F804AB4FF0FF3061074FF000016A
:104D500002D40DE008F101018846B9420FDA80451E
:104D6000F8DB1AF808100029F4D108E008F1010175
:104D700088468142FADB1AF808100029F6D1059816
:104D80005B46A0EB080721463846179A00F094FAD4
:104D9000284400EB080507E04DE029E10DE01AF892
:104DA000010B5A4617999047B8F10108F7D25B46B4
:104DB00021463846179A13E142E00A220092C4F3D2
:104DC00002524FF0000A022A08D059F804CB032AF5
:104DD0004FEAEC710AD00DE029E02AE009F1070161
:104DE00021F00702F2E802C1914609E00FFA8CFCBB
:104DF0004FEAEC71042A03D14FFA8CFC4FEAEC71B4
:104E0000002907DA0A460021DCF1000C61EB0201FF
:104E10002D2202E0220504D52B228DF80420012248
:104E200003E0E20701D02022F7E7904659E00A218B
:104E300002E010220DE010214FF0000A00910BE07B
:104E400010224FF0000A44F004040827009203E007
:104E500008224FF0000A0092C4F30252022A05D041
:104E600059F804CB0021032A08D009E009F1070111
:104E700021F00702F2E802C1914605E01FFA8CFC1E
:104E8000042A01D10CF0FF0C4FF00008220728D5AE
:104E9000702806D0009B83F0100353EA0A0305D064
:104EA0000EE040228DF80420012208E05CEA0102B5
:104EB00006D030228DF804208DF80500022290469D
:104EC000009B83F0080353EA0A030AD15CEA01025B
:104ED00001D1620705D530228DF804204FF001087A
:104EE0007F1E582804D034A003900EA802900DE035
:104EF00036A0F9E753466046009AFBF77FF98446EF
:104F00000398825C0298401E029002705CEA0100E5
:104F1000F0D1029806A9081A00F1200A600702D50C
:104F200024F4803400E00127574502DDA7EB0A0096
:104F300000E0002000EB0A01009005984144401A6F
:104F40000590E00306D45B462146179A059800F0C9
:104F5000B3F90544002706E001A85A46C05D179939
:104F600090476D1C7F1C4745F6DBE0030CD55B4684
:104F70002146179A059800F09FF9054404E0302077
:104F80005A46179990476D1C0099481E00900029B9
:104F9000F5DC08E0029802995A460078491C029113
:104FA000179990476D1CBAF10001AAF1010AF1DCD2
:104FB00065E10000092801003031323334353637DD
:104FC0003839616263646566000000003031323355
:104FD00034353637383941424344454600000000F5
:104FE00000F058F90544761C307800287FF4ECADC9
:104FF00019B02846BDE8F08F620700D4062709F1F2
:10500000070222F0070CFCE80223E14603F0004807
:105010005FEA080C02D00FF2702C0DE05FEA045C2E
:1050200002D50FF2682C07E05FEAC47C02D00FF2D1
:10503000602C01E0AFF2700C4FF0FF3823F000431A
:10504000CDF850C065280CD006DC452809D046288C
:105050001DD047283DD13DE0662818D067287ED175
:1050600038E00021112F01DB112000E0781CCDE990
:10507000000106A90EA8FFF7DDFCDDE90F010E9A7D
:1050800003910021009207F1010A04914DE04FF0D5
:1050900000400097CDE9011006A90EA8FFF7CAFC51
:1050A000DDE90F0203920E9B11990022DDF80CA09E
:1050B0000093049211B9791C00EB010AB7EB0A00C6
:1050C00004D4C0F1FF3007F1010A0490AAEB0700F5
:1050D000019044E0012F00DA01270021112F01DDAA
:1050E000112000E03846CDE9000106A90EA8FFF71F
:1050F000A1FCDDE90F010E9A0391002104910092B9
:10510000BA4621070CD40399514500DA8A46BAF110
:10511000010F05DD009AAAF10101515C302908D088
:10512000B84202DA10F1040F06DA0121CDE90110CC
:1051300015E0AAF10101E9E7002805DC0499014422
:105140000491AAEB000102E0411C514500DD8A46B2
:105150000499401A401C01904FF000400290200733
:1051600004D40198504501DBCDF8048000208DF86F
:105170004F0002980DF14F07B0F1004F25D02B20C2
:105180000E9002984FF0020800280CDA404202907C
:105190002D200E9007E00A210298FBF7A8F9303184
:1051A000029007F8011DB8F10001A8F10108F2DC36
:1051B00002980028EFD1791E0E980870307800F020
:1051C000200040F0450007F8020D12A8C01B00F1B6
:1051D00007081498007800B1012000EB0A0101983B
:1051E00001EBE07105984144401A401E0590E00330
:1051F00006D45B462146179A059800F05DF80544F1
:105200001498007818B15A46179990476D1CE0031E
:1052100024D55B462146179A059800F04DF80544C1
:105220001CE00498002807DBDDE90301884203DD68
:105230000098405C179901E0179930205A46904732
:10524000049805F10105401C04900198401E01904E
:1052500004D12E205A46179990476D1CBAF10001CF
:10526000AAF1010ADDDC05E017F8010B5A4617998F
:1052700090476D1CB8F10001A8F10108F4DC5B4611
:105280002146179A0598ABE62D0000002B00000080
:10529000200000002DE9F041044600251E46174677
:1052A000880404D405E039462020B0476D1C641EF4
:1052B000F9D52846BDE8F0812DE9F04104460025E6
:1052C0001E469046C80301D5302700E020278804F9
:1052D00004D505E041463846B0476D1C641EF9D53B
:1052E0002846BDE8F0810A68531C0B6010707047B7
:1052F0002DE9FF4F82B00020DDE911ABDDF86CE055
:1053000010998146884270D2002566E0002460E052
:105310001798012210F90910189881401998401E19
:1053200082408E18002244E000213EE0169800FBE7
:1053300005271498381A4FFA80FC159800FB0417BB
:105340001398381A47B2BCF1000F2CDB002F2ADB70
:105350000498844527DA0398874224DADDF80C8024
:1053600000200CFB08775F43019709FB03F707FB5D
:105370000BF702FB0A1C07FB0AF70CFB03770097ED
:105380000FE000BFDDE9017C844417F90C80DDF8F3
:105390003CC0009F844417F90C7018FB0766401C42
:1053A00080B29842EED3491C89B25145BED3521CFB
:1053B00092B25A45B8D3199805FB0E410641109890
:1053C0001A9A414302EB090006F30706641C0E54C7
:1053D000A4B274459CD36D1CADB21C98854295D384
:1053E00009F1010080B28BE7FFE706B00020BDE8BD
:1053F000F08F00002DE9F04F8A46DDE90A7B8146F7
:105400000020791E01258D40DDF824E01BE000BF5F
:105410001BF9001000FB02F601FA0EF14C190021F5
:1054200009E000BF0AEB010C16F90C8019F901C064
:105430001CFB0844491C9142F4DB0C993C4104F3E9
:1054400007040C54401C9842E2DB0020BDE8F08FBA
:1054500010B50022134605E08456002C00DA835470
:10546000521C92B28A42F7D310BDF0B56FF480732C
:10547000002405E005579D4200DD2B46641C24B244
:105480008C42F7DB083B00251CB22B4601270AE0C3
:10549000C656A64205DD361B86F3050607FA06F654
:1054A00035445B1C1BB28B42F2DB4FF4801393FB41
:1054B000F5F500231F460FE0C656A64209DDA61BE0
:1054C0000D3686F3050645FA06F606F30706D654AA
:1054D00000E0D7545B1C1BB28B42EDDBF0BD00003B
:1054E0002DE9F04F814687B0A02040F21004C2F2AF
:1054F0000004420046F2EC25C2F20105C4F80C009B
:1055000005EB8001401C91ED000A904281EDA00A5C
:10551000F6DB00273846E76005EB8001401C91ED83
:10552000000AA02881EDA00AF6DB384641F66C712E
:10553000C2F20101C4F80C7051F8202000EE102ACC
:1055400005EB8002401CB8EE400AA02882ED000A5C
:10555000F2DB40F22802C2F20002A021E06046F233
:10556000EC20C2F20100FBF7A3FE40F22800C2F2D9
:105570000000E76090ED000AE06805EB8001401C48
:10558000D1ED000AA02870EEC00AC1ED000AE0606B
:10559000F2DB41F2CC43C2F200034FF4F07146F665
:1055A000EC22C2F20102E760E06805EB800696EDAE
:1055B000000A03EB8006D6ED000A02EB8006401CD1
:1055C00020EE200A884286ED000AE060ECDBE16014
:1055D0004FF400714FF00008E06842F82080401C52
:1055E000E0608842F8DB6846FCF7B3FA002347F234
:1055F000EC22C2F20102A2F500616846FCF781FAD2
:105600004FF4807247F6EC21C2F20101A1F500606F
:10561000FBF7C4FC42F26C45C2F2010509EB8906B6
:10562000E760E06800EBC601401C45F82180E060BF
:105630002828F6DBBA4647F6EC2BC2F2010BE760EE
:1056400040F2CC07C2F20007DC4640F22C00C2F266
:105650000000C4F810A0E36850F8232003EBC60054
:1056600005EB8001206991ED000A02EB00080CEBCC
:105670008808D8ED000A00EB431807EB8808401CA7
:1056800098ED001A202800EE810A81ED000A2061C1
:10569000E8DB0868FAF7FCFE41EC100BFEF704FFAC
:1056A00049F699114FF02040C3F6C97141EC110B36
:1056B00051EC100B53EC112BFAF778FE41EC100B68
:1056C00049F69A1049F69911C9F69910C3F6F9717D
:1056D00041EC110B51EC100B53EC112BFAF760FE5F
:1056E000FAF7E9FE00EE100AE06800EBC60005EBF1
:1056F000800080ED000A00F093F80246142101EBCF
:10570000490001B2A0898C2303EB400000B200F0F5
:105710000EF8E068401CE060282895DB07B0BDE883
:10572000F08F002802D000BF401EFCD170472DE949
:10573000F04117460E460546FDF731FE681C00B2E3
:105740003A4631460446FDF72AFE761C31B23A4607
:105750000E462846FDF723FE3A4631462046BDE870
:10576000F041FDF71CBEFDF79EF8FEF78EFAFEF73E
:10577000C3F9FEF7AAF9FEF74AFAFEF76BF9FEF74E
:1057800005FAFDF769FD1420FCF78EFF0120FEF7F6
:10579000DBF80020FDF79BFE49F28C50C2F20100BD
:1057A000FDF77BFCA02240F21004C2F2000449F293
:1057B000E440C2F201002168FCF778FD00254FF4B7
:1057C0007A6660680028FCD065606069FFF788FE33
:1057D0006069642821DD00206561FDF778FE022004
:1057E000FEF7B2F800210846FEF7A7F8324641F668
:1057F0004C41C2F2000142F26C40C2F20100FBF7E0
:105800006DFCFEF7C6FA48F61860C2F2010000F01F
:1058100022F80120FEF798F8D3E7401C6061D0E73A
:1058200010EE100AB0F17C5F02DD4FF61F007047EA
:10583000B5EEC00AF1EE10FA02DD4FF47840704781
:1058400010EE100AB0F13F4F02D24FF6E0707047F1
:1058500040F2FF7070471CB56B4601AA0C21FBF7A4
:10586000D3FC00980C2842D249F2A811C0F60101DD
:10587000D1E800F045F69840C0F6000035E045F666
:10588000A440C0F6000030E045F6B040C0F600008D
:105890002BE045F6B840C0F6000026E045F6C040D3
:1058A000C0F6000021E045F6C840C0F600001CE04C
:1058B00045F6D040C0F6000017E045F6D840C0F6E7
:1058C000000012E045F6E040C0F600000DE045F6AD
:1058D000E840C0F6000008E045F6F040C0F60000E1
:1058E00003E045F6F840C0F60000FDF731FF1CBDAF
:1058F00000000000003E5B4F5B3E3E6B4F6B3E1C6A
:105900003E7C3E1C183C7E3C181C577D571C1C5E80
:105910007F5E1C00183C1800FFE7C3E7FF00182457
:105920001800FFE7DBE7FF30483A060E2629792901
:1059300026407F050507407F05253F5A3CE73C5A36
:105940007F3E1C1C08081C1C3E7F14227F22145F13
:105950005F005F5F06097F017F006689956A60606E
:1059600060606094A2FFA29408047E040810207E68
:10597000201008082A1C08081C2A08081E101010ED
:10598000100C1E0C1E0C30383E3830060E3E0E0633
:10599000000000000000005F000000070007001486
:1059A0007F147F14242A7F2A122313086462364945
:1059B0005620500008070300001C2241000041222D
:1059C0001C002A1C7F1C2A08083E08080080703032
:1059D00000080808080800006060002010080402A1
:1059E0003E5149453E00427F4000724949494621A7
:1059F00041494D331814127F1027454545393C4A1B
:105A00004949314121110907364949493646494931
:105A1000291E000014000000403400000008142279
:105A200041141414141400412214080201590906E7
:105A30003E415D594E7C1211127C7F494949363EE8
:105A4000414141227F4141413E7F494949417F09CE
:105A50000909013E414151737F0808087F00417FD9
:105A600041002040413F017F081422417F404040D7
:105A7000407F021C027F7F0408107F3E4141413E6F
:105A80007F090909063E4151215E7F0919294626F1
:105A90004949493203017F01033F4040403F1F20F5
:105AA00040201F3F4038403F6314081463030478CC
:105AB00004036159494D43007F41414102040810EC
:105AC00020004141417F0402010204404040404027
:105AD000000307080020545478407F284444383895
