:020000040800F2
:1000000050960120D9010008A7360008B92E000833
:10001000A5360008B91B0008313E000800000000AA
:10002000000000000000000000000000CB360008C7
:100030006D1C000800000000C9360008CD3600081D
:10004000F3010008F3010008F3010008F3010008C0
:10005000F3010008F3010008F3010008F3010008B0
:10006000F3010008F3010008F3010008F3010008A0
:10007000F3010008F3010008F3010008F301000890
:10008000F3010008F3010008F3010008F301000880
:10009000F3010008F3010008F3010008F301000870
:1000A000F3010008F3010008F3010008F301000860
:1000B000F3010008F3010008F3010008F301000850
:1000C000F3010008F3010008F3010008F301000840
:1000D000F3010008F3010008F3010008F301000830
:1000E000F3010008F3010008F3010008F301000820
:1000F000F3010008F3010008F3010008F301000810
:10010000F3010008F3010008F3010008F3010008FF
:10011000F3010008F3010008F3010008F3010008EF
:10012000BD1B0008F3010008F3010008F3010008FB
:10013000F30100080000000000000000F3010008C7
:10014000F3010008F3010008F3010008F3010008BF
:10015000F3010008F3010008F3010008F3010008AF
:10016000F3010008F3010008F3010008F30100089F
:10017000F3010008F3010008F3010008000000008B
:1001800000000000F3010008000000000000000073
:10019000F30100080000000000000000F301000867
:1001A000000000000000000000000000F301000853
:1001B000F3010008F3010008F3010008F30100084F
:1001C000F3010008DFF80CD000F0EEFA0048004719
:1001D000CD47000850960120064880470648004752
:1001E000FEE7FEE7FEE7FEE7FEE7FEE7FEE7FEE7E7
:1001F000FEE7FEE77D370008C50100082DE9F05F46
:100200000546002092469B46884606468146402485
:100210001BE0284641464746224600F077F9534600
:100220005A46C01A914110D311461846224600F092
:100230005EF92D1A67EB01084F4622460120002186
:1002400000F055F917EB00094E41201EA4F10104FE
:10025000DFDC484631462A464346BDE8F09F2DE99B
:10026000FE4F804681EA0300C00F0C46009021F04B
:10027000004123F00045B8EB0200A94105D24046F9
:10028000214690461C460B46024623F00040104390
:1002900047D0270DC7F30A00C3F30A510290401A52
:1002A000019040286BDAC3F3130040F4801B0098E0
:1002B000924620B10023D2EB030A63EB0B0B0198AB
:1002C0005946C0F14002504600F011F906460D466D
:1002D00050465946019A00F029F910EB0800614197
:1002E000002487EA115284EAE7731A4340D0009A47
:1002F00062B3019A012A4FEA075215DC001B61EB39
:1003000002014FF0004202EA0752CDE90042001C10
:1003100041F5801132462B4600F060F903B0BDE88C
:10032000F08F40462146F9E7001B61EB0201001CFB
:1003300041F5801300185B412018A2F5001747EB28
:10034000030140EAD570B6196D4111E06D084FEA1E
:10035000360645EAC0754FEA0752001B61EB020101
:10036000001C41F5801149084FEA30000019514145
:1003700032462B4603B0BDE8F04F00F020B900989C
:10038000012240000023D0EB020263EBE0730098EF
:1003900021464FEAE074B8EB000061EB0401E9E7A5
:1003A00083F000435BE781F0004158E72DE9FE4F01
:1003B00081EA030404F0004421F0004100944FF06E
:1003C000000B23F0004350EA01045ED052EA03041C
:1003D0005BD0C3F30A54C1F30A552C44A4F2F3349E
:1003E0000194A0FB0254C1F3130141F48011C3F343
:1003F000130343F4801301FB024400FB034E840A01
:10040000970A44EA815447EA8357A4FB0768029598
:100410008D0A05FB07854FEA932C04FB0C54270536
:10042000029D4FEA065847EA1637B5EB08056EEB12
:10043000070C870E920E47EA811742EA8312A7FB48
:100440000201B6EB0B0164EB00042B0D43EA0C3305
:100450005E1844EB1C50DA465146E7FB0201C5F337
:1004600013044FEA0B3343EA14534FEA0432019C5E
:1004700043EA0603A4F10C040294009CCDE900B405
:1004800000F0ACF803B0BDE8F08F00200146F9E7BA
:1004900000F0004230F000400AD0C10D01F560715B
:1004A000C0F3160042EA0151C208400711437047E9
:1004B00000200146704701F0004330B421F00041B4
:1004C00050EA010206D00A0DA2F56072C1F31301D1
:1004D000002A02DC30BC00207047440F44EAC1040B
:1004E000C100E01830BC00EBC25000F031B8202A47
:1004F00004DB203A00FA02F1002070479140C2F17B
:10050000200320FA03F3194390407047202A04DBAC
:10051000203A21FA02F00021704721FA02F3D0407C
:10052000C2F120029140084319467047202A06DB99
:10053000CB17203A41FA02F043EAE07306E041FAB1
:1005400002F3D040C2F1200291400843194670479F
:100550000029A8BF7047401C490008BF20F00100D7
:10056000704710B4B0FA80FC00FA0CF050EA0104B5
:1005700004BF10BC704749B1CCF1200421FA04F447
:1005800011FA0CF118BF012121430843A3EB0C0120
:10059000CB1D4FEA00614FEA102042BF002010BC83
:1005A000704700EBC35010440029A4BF10BC704733
:1005B000401C490008BF20F0010010BC704710B576
:1005C000141E73F1000408DA401C41F10001921876
:1005D0005B411A4301D120F0010010BD2DE9F04D1F
:1005E00092469B4611B1B1FA81F202E0B0FA80F274
:1005F00020329046FFF77BFF04460F4640EA0A0090
:1006000041EA0B0153465A46084313D0114653EAB8
:10061000010019D0C8F140025046FFF777FF0546A8
:100620000E46504659464246FFF761FF084305D043
:10063000012004E020463946BDE8F08D0020054346
:1006400046EAE0762C4337430A986305E40AA0EBB8
:1006500008000022FD0A44EA47540A3002D500206F
:100660000146E9E7010510196941DDE9084500196E
:100670006941BDE8F04DA2E72DE9F04D81EA0304A0
:1006800004F0004B21F0004514464FF0000A23F01F
:10069000004150EA050220D054EA01021DD0C5F302
:1006A0000A570246C5F31303C1F31300C1F30A56F8
:1006B00040F4801543F48013A7EB0608101BD646C0
:1006C00008F2FD3873EB050002D308F1010801E0E0
:1006D00092185B41B8F1000F03DA00200146BDE833
:1006E000F08D00204FF48011064684460EE0171B63
:1006F00073EB050705D3121B63EB050306434CEAB6
:10070000010C49084FEA300092185B4150EA01079A
:10071000EDD152EA030012D082EA040083EA050117
:10072000084305D0101BAB4106D20122002306E08E
:1007300000224FF0004302E06FF0010253101AEB69
:1007400006004CEB085110EB0A0041EB0B01BDE831
:10075000F04DFFF734BF0EB5C10F80EAE0700844DA
:10076000CA07002140F233438DE80E000A460B46CB
:10077000FFF734FF03B000BD30B5041E71F1000473
:1007800004DB4FF00044404264EB0101141E73F19E
:10079000000405DB1C464FF00043524263EB0403A8
:1007A0008B4208BF824230BD064C074D06E0E06830
:1007B00040F0010394E8070098471034AC42F6D3A8
:1007C000FFF704FD80800108A080010870B58D1836
:1007D00010F8014B14F0030201D110F8012B231182
:1007E00006D110F8013B03E010F8016B01F8016B32
:1007F000521EF9D1ABB110F8012B04F00C048A1A87
:100800000C2C03D0A2EB84129B1C08E010F8014BC7
:10081000A2EB0422F8E712F8014B01F8014B5B1E32
:10082000F9D5A942D4D3002070BD0000B0B5E1B124
:100830004FF0000C02EB4C0432F81C300CF1020CAF
:1008400064888C4523F0030324F0030450F803E08C
:100850000559C55040F804E003440444D3F804E0CB
:1008600065685D60C4F804E0E4D3B0BD2DE9F041F3
:100870000588984616460C460746012A0CD1E5B372
:10088000201D294690ED000A0139B1EE400A80EDA5
:10089000000A00F10800F5D1FF2D0CDDB5F5806FE1
:1008A00010DBB5F5805F22D0B5F5006F11D0B5F53E
:1008B000806F17D021E03F2D10DC102D12D0202D9D
:1008C00007D01AE0B5F5807F03D0B5F5007F0ED0D4
:1008D00013E03846214600F007F90EE0402D06D01F
:1008E000802D0AD13846214600F030F805E07A68BC
:1008F00020462946012300F0ABFBB8F1000F04D0DD
:10090000BA68B9892046FFF791FF012E1CD100EE8D
:10091000105A002DB8EE400A08BFBDE8F081B7EECE
:10092000001A81EE000A00BF94ED001A94ED012A2E
:10093000013D20EE011A20EE422A84ED001A84EDDA
:10094000012A04F10804EFD1BDE8F0812DE9F04758
:100950002DED088B804600880023D8F8042001EB99
:10096000800A4FEA5009B3EBD00F00F0AD80C70802
:1009700001EB890C0AEB890E7C420027C8190AEBAF
:1009800007060CEB07030EEB0705013496ED000A92
:1009900090ED004A96ED011A90ED015A96ED022A6B
:1009A00090ED026A96ED033A90ED037AD5ED000AD8
:1009B000D5ED011AD5ED022AD5ED033AD3ED004A63
:1009C000D3ED015AD3ED026AD3ED037A34EE00BAC7
:1009D00037EE038A36EE029A35EE01AA34EE400A6B
:1009E00035EE411A36EE422A37EE433A33EEE76AE5
:1009F00032EEE67A80ED00BA80ED01AA80ED029A2F
:100A000080ED038A34EEA0BA35EEA1AA37EEA38AB0
:100A100036EEA29A02EB070071EEE51A70EEE40AD8
:100A200007F1100783ED00BA83ED01AA83ED029A66
:100A300083ED038A90ED008A90ED019A20EE094A39
:100A400021EE085A21EE091A20EE080A35EE444A32
:100A500030EE010A21EE891A20EE885A61EE881ADA
:100A600060EE890A86ED014A86ED000A35EE010A3C
:100A700030EEE11A85ED010A85ED001A90ED020ACB
:100A800090ED031A22EE014A23EE005A23EE013ABA
:100A900022EE002A35EE444A32EE032A26EE013ACF
:100AA00027EE005A26EE000A27EE011A86ED034AC9
:100AB00086ED022A35EE032A31EE400A85ED032A3F
:100AC00085ED020A7FF45AAF08464946022300F03A
:100AD000BFFAD8F80420504649460223BDEC088BE3
:100AE000BDE8F04700F0B4BA2DE9F04F81B02DED2C
:100AF000088B92B0B0F800C00590406891ED000AF4
:100B000091ED011A4FF000094FF0000B4FEA5C0223
:100B100006906FF001000F9101EB820300EB9C0740
:100B200003EB8205A9EB57006FF0030793ED004A32
:100B300093ED015A95ED002A95ED013A05EB8204FB
:100B4000119007EB820007EBC20E6FF0070794EDE0
:100B5000007AD4ED010A07EB0216109031EE036A19
:100B600070EE021A31EE431A30EE420A0E9602EB94
:100B7000420676EE052A71EE843A31EE442A30EED2
:100B8000053A31EE041A30EE450A36EE456A71EE4A
:100B9000C41A07EB86004FEA9C074FEA860A73EEF9
:100BA000873A72EEA02A32EE072A33EE603A31EE2F
:100BB000471A30EE200A0D90019702930495970092
:100BC0000394C1ED003AC1ED012A83ED003A83EDB3
:100BD000012A31EEC73A36EE602AD10085ED003A9F
:100BE00085ED012A84ED000A84ED011A0024E0E07D
:100BF0000F98089407920B915A46CB46109900EB38
:100C00000E0400EB01090D990A97CDF830E0CDF8FC
:100C100024A0D4ED002A14ED015ADDF838A0D9ED56
:100C2000001A59ED017A47180839D7ED010A00EB8F
:100C30000A0ED7ED006A0798AAF1080ADEED014A0C
:100C40009EED004A71EEA03A37EEA69A73EEA25AD4
:100C500075EEA45AC9ED005A54ED015A9EED008A72
:100C600079EE255A75EE885A49ED015AD9469346D0
:100C7000D3ED035A93ED028A09F1080902F1180B2A
:100C800026EE25AA27EE08BA27EE257A26EE086A70
:100C90003BEE0AAA36EE476A32EEE47A85ED02AA06
:100CA00085ED036A31EEE06A77EEE60A76EE451AE4
:100CB00070EE876A71EE841A66EE887A21EEA5AA34
:100CC00066EEA55A61EE881A7AEE677A71EEA51A79
:100CD000C4ED007A44ED011A089CD6ED051AD6ED54
:100CE000045A103462EE216A63EE257A23EE213A2B
:100CF00022EE252A77EEA66A32EE432A33EEE23A56
:100D0000CCED026A8CED032A39EE452A33EE643AC3
:100D100032EE442A63EE653A23EE213A62EE212A4E
:100D200022EE252A73EEE22A33EE422AC7ED012A8B
:100D300087ED002A0A9F90ED072A90ED063A109859
:100D4000083760EE021A61EE032A21EE021A20EE45
:100D5000030A083872EEA11A30EE410A37EE601A23
:100D6000C8ED021A88ED030A34EE450A21EE034A63
:100D700021EE021A30EE460A20EE025A20EE030A55
:100D800035EE444A30EE010A8EED014A8EED000A3E
:100D9000DDF830E010901198AEF1080E013011909E
:100DA0000D910B99CDF838A0DDF824A008310AF197
:100DB000080A0F9B119803EB090203EB010CDD19E4
:100DC00003EB0A08069B00289CED020A92ED022A1A
:100DD00095ED024A98ED026A9CED031A92ED033AF2
:100DE00095ED035A98ED037A03EB040672EE000AC0
:100DF00073EE013A33EE411A32EE400A70EE841A75
:100E000031EE042A70EEC40A30EE453A31EE444A1F
:100E100071EE861A33EE071A30EEC63AC2ED021AA8
:100E2000D5ED031AD8ED032A73EEA11A71EEA21ABA
:100E3000C2ED031A73EEC51A30EE055A32EE460AB9
:100E400003EB0B024B4434EE066A31EEC72A35EE53
:100E5000477A7FF4CDAE93ED024A93ED035A0F9893
:100E6000042367EE050A66EE041A26EE055A27EEFD
:100E7000044A34EE054A31EEE06A85ED024A85ED1A
:100E8000036A019D96ED044A96ED055A294623EE24
:100E9000056A22EE047A23EE043A22EE052A33EEA6
:100EA000022A37EE464A8CED022A8CED034A92ED77
:100EB000062A92ED073A069A21EE034A20EE025ADC
:100EC00021EE021A20EE030A31EE000A35EE442A22
:100ED00088ED020A88ED032A00F0BAF8059C029812
:100EE00029460423626800F0B3F862680498294632
:100EF000042300F0ADF8626803982946042312B079
:100F0000BDEC088B01B0BDE8F04F00F0A1B80000C7
:100F10002DE9F0412DED028B0446002090460D4650
:100F2000B0EB920F6DD04FEA9800474294ED000A63
:100F300094ED011A21EE011A20EE000A30EE018A2A
:100F4000B0EE480A03F05AF9B4EEC00AF1EE10FA16
:100F500003D7B0EE480A03F051F985ED000A94ED8D
:100F6000020A94ED031A21EE011A20EE000A30EE77
:100F7000018AB0EE480A03F041F9B4EEC00AF1EE7E
:100F800010FA03D7B0EE480A03F038F985ED010AEC
:100F900094ED040A94ED051A21EE011A20EE000AE0
:100FA00030EE018AB0EE480A03F028F9B4EEC00A28
:100FB000F1EE10FA03D7B0EE480A03F01FF985ED01
:100FC000020A94ED060A94ED071A21EE011A20EEAA
:100FD000000A30EE018AB0EE480A03F00FF9B4EED1
:100FE000C00A05F110062034F1EE10FA03D7B0EE76
:100FF000480A03F003F985ED030A0137354695D118
:1010000000E02E4618F003001ED0454294ED000A81
:1010100094ED011A21EE011A20EE000A30EE018A49
:10102000B0EE480A03F0EAF8B4EEC00A371DF1EE5C
:1010300010FA03D7B0EE480A03F0E0F886ED000A94
:10104000083401353E46E1D1BDEC028BBDE8F081AC
:101050002DE9F04F81B02DED108BA0B09FED050A6A
:10106000CDE903328C46019004301B910290084672
:1010700002E000BFF304353F4FEADC064FEACC073D
:101080004FF0000BF30006EB860235010896A3EB48
:10109000DC00D100C0001A9006EB46007601C400C7
:1010A00000012246029CCDE91E7CCDE90C01CDE970
:1010B0001C6500BF0C9804EB03091F461A9B04EB48
:1010C00001082644254404EB020E14ED017ADDF8F4
:1010D0007CC0114656ED010A1EED012A18ED013AB9
:1010E00019ED014A15ED016A04EB030A20443B4661
:1010F000E3441AED011A10ED015A77EE204A74EE1E
:10110000032A37EE607A72EE011A76EE053A32EE75
:10111000411A34EE432A36EE455A72EEA15A74EE65
:10112000A36A34EEE33A72EEE11A76EEA57A76EE31
:10113000E55A44ED017A46ED015ADAED005ADEED4A
:10114000006AD8ED007A99ED008A90ED009A95ED4D
:1011500000AA96ED00BA94ED00CA36EEA5DA38EE94
:1011600027EA3AEE09FA7CEE0B8A36EEE54A78EE8B
:10117000673A72EE415A32EE011A3CEE4B6A7EEE4D
:101180000D9A78EE8FAA3EEE4DDA73EE842A78EE51
:10119000CF6A65EE800A33EEC42A21EE001A7AEE99
:1011A000A9BA73EE0D4A7AEEE99A33EE4D3A62EE41
:1011B000802A76EEE15A71EEA61A22EE002A37EE68
:1011C000604AC4ED00BAC6ED009A45ED014A7AEED8
:1011D000494A00ED013A37EE203AC5ED005AC0ED1C
:1011E000001A76EE021A36EE422A74EEA27A34EE35
:1011F000E27A73EE275A33EE673A74EE070A34EE5A
:10120000474A49ED015A0AED013A35EE013A48EDF7
:10121000010A0EED014A35EE411A31EEC37A33EE82
:10122000213A32EE414A31EE021A89ED007A8AED16
:10123000003ADDE91C651E9F1B980D9988ED004A58
:101240008EED001A3C448345FFF434AFBCF1400FEF
:10125000C0F0C9810398DDF80480002501270792BA
:101260000E9380B206900898C0EBC000C0000590B5
:101270000698049CCDF824800A97DFEDDE2A054409
:1012800005EB850305EB45020B95D900D00004EB77
:10129000C3030431043004EB010E04EB451104EBED
:1012A000000CC5EBC50091ED000A04EB0511DCED67
:1012B000006AC446DEED005ADDF81C808DED1A0A86
:1012C00091ED000A04EBC5018DED190A91ED000ABC
:1012D00004EBC001C00004308DED180A91ED000A46
:1012E00004EB021120448DED170A91ED000A110163
:1012F00004EBC20204318DED160A93ED000AEB00F7
:1013000004EB01096901043304318DED150A92EDF6
:10131000000A2A012344043222440C448DED140AAD
:1013200094ED000A8DED130A92ED000A8DED120A7C
:1013300093ED000A3B468DED110A90ED000A8DED0C
:10134000100A99ED000A8DED0F0ADDE90C15059FD5
:101350001D980CEB060B0CEB01090CEB05020CEBDA
:10136000070E9CED02DA9CED03EADDED1A3ADDEDA5
:10137000134A1C9E9BED02FADEED027A92ED029A70
:1013800099ED02BA0CEB000A0E989AED02CA7DEEB6
:101390000FBA0CEB00040CEB080090ED028A94ED00
:1013A00002AA7CEE0BAA7BEEAADA78EE278A7AEE06
:1013B000099A78EE677A3AEE498A79EEA8CA38EE49
:1013C000670A78EE277A79EEE88A7DEEACEA7DEE60
:1013D000ECCA20EE220A67EEA27ACCED02EA63EEB6
:1013E000AC0A64EEACCADBED03DA9EED039A90ED35
:1013F00003AAD2ED03EAD4ED03FA99ED031A9AEDAC
:10140000032A32EE013A3EEE2D4A7AEE099A3FEE79
:10141000AE8A32EE411A38EE295A34EE036A34EEBF
:10142000433A38EE698A3BEEEA4A36EE457A36EEC2
:10143000055A3AEE496A3FEEEE9A39EE46AA64EE54
:10144000871A39EE066A23EE877ADDED124ADDED62
:10145000193A8CED035A34EE085A3DEE4F9A34EEA9
:10146000484A26EE222A37EE6C6A30EEA17A73EEF5
:10147000680A7CEE4B1A38EE833A3EEE6DCA2AEECD
:1014800022AA39EE008A39EE400A24EE85BA23EE0C
:10149000A0DA23EE855A64EEA00ADDED0F4ADDEDF9
:1014A000163A8BED027A8BED036A31EE02EA31EEE9
:1014B000A77A31EE421A31EEE72A7CEE4A1A3DEE67
:1014C0004B6A30EE855A3CEE0ABA38EE0EFA38EE28
:1014D0004E8A70EE017A30EE410A32EE211A64EE45
:1014E000840A23EE83DA8AED025A23EE844ADDED84
:1014F000183A24EE833A7BEE478A8AED036A37EE88
:101500000B7A3DEE605ADDED110A33EE043A23EE1C
:10151000A86A23EE8FDA89ED023ADDED103A89ED03
:10152000035A20EE8F4A60EEA80A36EE443A3DEEAA
:10153000204ADDED170A23EE885A84ED024A84ED35
:10154000033A20EE876A60EE880A23EE877A31EE4E
:10155000C28A30EE874ADDED150A36EE453A25EEB1
:10156000A75A25EE887A8EED024A8EED033A26EED2
:10157000804A20EE886A60EEA70A36EE452A9DED85
:10158000146A30EE873A82ED023A82ED032A26EEA3
:10159000015A26EE811A26EE000A30EE010A35EED7
:1015A000442A80ED020A80ED032A1E9884441F9885
:1015B00003441B988342FFF4CBAE0A9FDDF82480DE
:1015C00008980B9D013708F108088742FFF450AED8
:1015D0000398DDF820C09FED070AC00003901F9814
:1015E0003F283FF649AD20B0BDEC108B01B0BDE8FF
:1015F000F08F00BFF304353FC8B14FF4806140F273
:10160000001201824FF40071C0F6010201804FF414
:10161000E071818147F6905142614EF60072C0F64A
:101620000001C0F60002C0E90121002000E0FF2017
:1016300040B27047B0B1802141F2001201824021D6
:10164000C0F6010201803821818148F21011426107
:101650004FF60072C0F60001C0F60002C0E9012199
:10166000002000E0FF2040B27047C8B14FF4006195
:1016700041F2003201824FF48061C0F60102018024
:101680004FF4E161818144F62841426148F28012C1
:10169000C0F60001C0F60002C0E90121002000E010
:1016A000FF2040B27047B8B14FF4807143F200326E
:1016B00001828021C0F601020180D021818145F69E
:1016C000382142614AF28012C0F60001C0F60002E1
:1016D000C0E90121002000E0FF2040B27047B0B116
:1016E000202143F2007201821021C0F60102018024
:1016F0001421818145F6D83142614AF28052C0F608
:101700000001C0F60002C0E90121002000E0FF2036
:1017100040B27047C8B14FF4805143F280720182E9
:101720004FF40061C0F6010201804FF46E618181C7
:1017300045F6004142614AF20062C0F60001C0F67F
:101740000002C0E90121002000E0FF2040B2704704
:10175000C8B14FF4007147F2807201824FF480717A
:10176000C0F6010201804FF4DC71818147F6C0119F
:1017700042614EF20062C0F60001C0F60002C0E90C
:101780000121002000E0FF2040B27047B0B14021AD
:1017900047F6807201822021C0F6010201803021CB
:1017A000818147F6305142614EF60062C0F6000179
:1017B000C0F60002C0E90121002000E0FF2040B295
:1017C0007047F0B581B00546008A14460E46002BDE
:1017D0004FEA500028800ED02846314622461F4648
:1017E00000F060F8284621463A46012301B0BDE8E2
:1017F000F040FFF73BB82846314600220123FFF7AF
:1018000035F828463146224601B0BDE8F04000F0E8
:10181000A3B8B1F5007F0ADA7F2916DC202929D088
:1018200040293BD141F28D71C0F600010847B1F566
:10183000006F14DAB1F5007F21D0B1F5806F2DD1A2
:1018400041F2F951C0F60001084780291CD0B1F5DA
:10185000807F23D141F2A761C0F600010847B1F5AE
:10186000805F16D0B1F5006F18D141F26B61C0F600
:101870000001084741F2DF61C0F60001084741F26C
:101880005171C0F60001084741F23561C0F6000110
:10189000084741F21571C0F6000108474FF0FF30CC
:1018A0007047000080B591ED001A91ED012A038880
:1018B000B6EE000AD0F814E031EE423A31EE021AE8
:1018C000581E21EE001A23EE002A82ED001A82ED46
:1018D000012A08BF80BD01EBC000C3F1010C083232
:1018E0000EF108030831043010ED011A91ED003AB1
:1018F00090ED002A91ED014A93ED005A93ED016AB3
:1019000008381CF1010C03F1080301F1080133EE62
:10191000417A72EE040A34EE422A31EE031A27EEBF
:10192000053A27EE064A25EE205A32EE042A20EE2A
:10193000864A31EE431A32EE452A31EE441A21EE40
:10194000001A22EE002A82ED001A82ED012A02F12D
:101950000802C9D180BD000080B591ED011A91ED5A
:10196000000A0388D0F814E030EE002A31EE011AA4
:10197000B6EE000A01EBC300C3F1010C08310EF111
:10198000080332EE413A32EE011A043821EE001A11
:1019900023EE002A82ED001A82ED012A083200BFF0
:1019A00091ED001A10ED013A91ED012A90ED004AF7
:1019B00093ED005A93ED016A1CF1010CA0F10800AF
:1019C00001F1080103F1080333EE417A74EE020AD3
:1019D00032EE442A33EE011A27EE053A27EE064A84
:1019E00025EE205A32EE042A20EE864A31EE031A02
:1019F00032EE452A31EE041A21EE001A22EE002AB8
:101A000082ED001A82ED012A02F10802C8D180BDE0
:101A100010B50146806B026C12F0500F05D0806B40
:101A2000C26CBDE8104008461047016C41F40071DB
:101A3000016401688A6812F0405F17D18269AAB90F
:101A4000CA6A12F4700F02D08A6852050ED44A682E
:101A500022F020024A60016C21F480710164016C63
:101A6000C90403D4016C41F00101016400F0EEF9F6
:101A700010BD10B5806B40210164416C41F0040140
:101A8000416400F0FAF910BD10B5806B00F0F4F974
:101A900010BD0000454910B54A6822F440324A6042
:101AA0004A6843681A434A6001684A6822F48072AF
:101AB0004A6001684A68036942EA03224A60016891
:101AC0004A6822F040724A6001684A6883681A4393
:101AD0004A6001688A6822F400628A6001688A6844
:101AE000C3681A438A60816A6FF07062D1420168EC
:101AF0008A6822F070628A6001688A680CD0836A02
:101B00001A438A6001688A6822F040528A6001683C
:101B10008A68C36A1A4301E022F040528A60016871
:101B20008A6822F002028A6001688A68836942EA50
:101B300043028A60016A002901684A680FD042F4B2
:101B400000624A6001684A6822F460424A600168A3
:101B50004A68174C436A04EB43331A4301E022F40A
:101B600000624A600168CA6A22F47002CA620168AF
:101B7000CA6A838B0F4C04EB03531A43CA62016891
:101B80008A6822F400728A6001688A68036B42EAFC
:101B900043228A6001688A6822F480628A60016850
:101BA0008A68406942EA8020886010BD00230140B5
:101BB00000E0FFFF0000F0FFFEE70000014800F03A
:101BC00051BA00007091012001681823CAB2103A7E
:101BD000B2FBF3F2054B6FF30901032A9B5CC3656B
:101BE00000D9091D8165084670470000C64B0008F2
:101BF00010B5014600208B698A6A4FF0C07453B15A
:101C0000B3F5005F15D072B1012A0CD0022A0AD0B8
:101C1000032A09D104E01AB1012A06D0022A03D10D
:101C2000C96AC90100D5012010BDC96AA142FAD014
:101C300010BD002AF7D0012AF2D0022AF3D0032ADD
:101C4000F3D010BD30B50468256825F480252560E3
:101C5000046863608368402B036803D09960006860
:101C6000C26030BD9A600068C16030BD704700003E
:101C700030B51D4887B00024016841F004010160BF
:101C8000016801F004010591016841F00101016062
:101C9000016801F001010591016841F00201016054
:101CA0000068012500F00200059082200090CDE937
:101CB000015469460D48039400F05CFB40F2137038
:101CC0000090CDE9015469460948039400F052FBA5
:101CD00040F239400090CDE901546946054803942B
:101CE00000F048FB07B030BD303802400008024029
:101CF000000002400004024078B50024009490F8EF
:101D00003C20012A19D0012280F83C200A680723D0
:101D10000568092A13D9EE680A3A02EB4202934099
:101D20009E43EE600A788B680A3A02EB42029340C7
:101D30000268D5682B43D36010E0022078BD2E697D
:101D400002EB420293409E432E610A788B6802EBBD
:101D500042029340026815692B4313614A681F23AE
:101D6000072A13D205686E6B521E02EB8202934063
:101D70009E436E630B790A885B1E92B203EB83036A
:101D80009A4003685D6B2A435A6327E005680D2A71
:101D900012D22E6BD21F02EB820293409E432E631F
:101DA0000B790A88DB1F92B203EB83039A40036826
:101DB0001D6B2A431A6311E0EE6A0D3A02EB8202B0
:101DC00093409E43EE620B790A880D3B92B203EB7F
:101DD00083039A400368DD6A2A43DA62174B056879
:101DE000154A9D4206D10D68122D03D1556845F460
:101DF0008005556005689D4219D1114D0B68AB42B5
:101E000001D0112B13D1536843F4000353600968C8
:101E1000A9420CD10B490C4A0968B1FBF2F101EB64
:101E20008101490000E0491E00910029FBD180F8A2
:101E30003C40002078BD000000230140002001400C
:101E400012000010901D012040420F000068074959
:101E5000884209D10648074902688A4201D101F542
:101E600020710160012141607047000000200140A5
:101E700010000020681E01207047704770B50400F4
:101E80004FF0000503D0206C002610B107E00120C0
:101E900070BD666484F83C60204600F019F8206C40
:101EA000C00610D4206C20F4885040F0020020645A
:101EB0002046FFF7EFFD6664206C20F0020040F042
:101EC0000100206400E0012584F83C60284670BDD4
:101ED00070B5064600681A4986B088422DD1194867
:101EE0000025016841F4807101600068694600F4D2
:101EF00080700590022000900320CDE90105124872
:101F000000F038FA124C1148C4E900050015A5602C
:101F1000C4E90350800060618000A0618011E0612D
:101F20004002C4E90805204600F06CF918B17B2195
:101F300008A001F07EFFB463A66306B070BD000088
:101F40000020014044380240000402401064024076
:101F5000709101202E2E2F5372632F6164632E63C4
:101F600000000000F8B50E4600210446009190F8EC
:101F70003C00012807D0012084F83C0020688368D9
:101F8000DB0702D011E00220F8BD836843F00103B3
:101F900083602D482D4B0068B0FBF3F000EB400050
:101FA00000E0401E00900028FBD120688368DB071A
:101FB00048D0236C40F20165AB4343F48073236443
:101FC0004068400505D5206C20F4005040F4805056
:101FD0002064206CC00404D5606C20F006006064AE
:101FE00000E0616484F83C10A16B1A48184DC86386
:101FF000A16B19480864A16B1848C86421686FF088
:10200000220008602068416841F0806141602068DA
:10201000816841F4807181602168134632464C31F9
:10202000A06B00F059F96868C006206802D00C491E
:10203000884207D1816811F0405F03D1816841F087
:10204000804181600020F8BD901D012040420F00BA
:1020500000230140111A0008891A0008731A0008A9
:10206000002001402DE9F84304464FF00009CDF867
:10207000009063484FF41651A56D0068B0FBF1F76E
:102080002E6894F85C10082000FA01F131420FD05C
:1020900021680A6852070BD50A6822F004020A6018
:1020A00094F85C108840A860606D40F001006065A5
:1020B00094F85C104FF0010808FA01F0304208D0A3
:1020C00021684969090604D5A860606D40F00200E6
:1020D000606594F85C1004208840304208D0216884
:1020E0000968890704D5A860606D40F00400606548
:1020F00094F85C1010208840304218D0216809689C
:10210000090714D5A86020680168490304D5006850
:10211000000308D5A16C07E00168C90503D4016874
:1021200021F008010160216C09B12046884794F82C
:102130005C1020208840304231D021680968C906EF
:102140002DD5A86094F8350005282068016806D0D0
:10215000490347D5006800031DD4616C1CE021F0E1
:10216000160101602068416921F080014161206C05
:1021700008B9A06C20B12068016821F00801016055
:1021800094F85C103F208840A86084F8349084F86C
:102190003580216D1FE0E16B09B120468847606DF5
:1021A00000282BD0606DC00714D0052084F83500BE
:1021B0002068016821F0010101600098401C009036
:1021C000B84203D820680068C007F6D184F834907C
:1021D00084F83580E16C002910D001B02046BDE8BC
:1021E000F04308470168C905D5D4016821F0100102
:1021F000016084F8349084F83580CCE7BDE8F8833A
:10220000901D01202DE9F041044600F08BF90646AF
:102210005CB1002584F83450022084F83500206831
:10222000016821F0010101600DE00120BDE8F081AD
:1022300000F078F9801B052805D92020606503206F
:1022400084F83500F2E720680068C007F0D1226802
:10225000116820480140D4E901031843D4E903364A
:102260003343184363691843A3691843E369184368
:10227000236A18430843616A042903D1D4E90B1384
:1022800019430843106020684069666A20F007011E
:1022900030460E43012704280CD1A06A0643E06AA9
:1022A00040B12046FFF7A4FC20B14020606584F8CF
:1022B0003570BAE7206846612046FFF785FC94F840
:1022C0005C203F2191408160656584F83570002075
:1022D000ACE700003F8010F02DE9F0410446866D28
:1022E00090F83400002501280DD0012084F8340036
:1022F00094F835700020012F07D084F834000225AF
:102300002846BDE8F0810220FBE7022784F83570FB
:1023100060652046FFF796FC94F85C103F208840EB
:10232000B0602068016841F01601016020684169D1
:1023300041F080014161206C20B12068016841F0CA
:10234000080101602068016841F001010160D7E7E0
:1023500070B5044600F0E6F80546601C02D004485B
:102360000078044400F0DEF8401BA042FAD370BDB0
:10237000841D01202DE9F84FDFF874B100224FF0E1
:1023800001084FF0030A4FF00F090BF1040E00BFD4
:102390000B6808FA02F42340A3426ED14D68022D67
:1023A00001D0122D0ED1D50800EB850CDCF82050A1
:1023B0005607F70E09FA07F6B5430E69BE402E43DD
:1023C000CCF82060066855000F790AFA05FC07F082
:1023D000030726EA0C06AF40374307604E68012E1C
:1023E00005D0022E03D0112E01D0122E0ED18668F8
:1023F000CF6826EA0C06AF40374387604668A6439D
:102400000C79C4F30014944034434460C4688E686B
:1024100024EA0C04AE402643C6604C68E40060D554
:10242000344C256845F480452560246822F0030576
:1024300004F480440094304C2E19D6F808489507CF
:102440002F0F09FA07F5AC432C4DA84201D1002506
:102450001FE02B4DA84201D101251AE0294DA842C9
:1024600001D1022515E0284DA84201D1032510E035
:10247000264DA84202D104250BE032E0244DA842AB
:1024800001D1052505E0234DA84201D1062500E034
:102490000725BD402543C6F80858DBF800405D46D7
:1024A0004E689C43F60300D51C432C60DEF80040C8
:1024B00075464E689C43B60300D51C432C600C4DFA
:1024C00008352C684E689C43F60200D51C432C60EE
:1024D000074D0C352C684E689C43B60200D51C4352
:1024E0002C60521C102AFFF453AFBDE8F88F000097
:1024F000003C0140443802400030014000000240EE
:102500000004024000080240000C0240001002409B
:1025100000140240001802400AB1816170470904AA
:10252000FBE700000148806870470000841D01201F
:10253000024881680278114481607047841D01203F
:102540000B4810B5016841F400710160016841F465
:1025500080610160016841F480710160032000F036
:1025600097F8002000F006F800F024F8002010BDD5
:10257000003C024070B50D4D04464FF47A71287846
:10258000B1FBF0F00A490968B1FBF0F000F049FB3B
:1025900048B9102C07D200222146501E00F058F8EE
:1025A00000206C6070BD012070BD0000841D012002
:1025B000901D01201F4808B5016841F48041016069
:1025C000006800F4804000901A48001F016841F044
:1025D00080510160006800F080500090072000F0FA
:1025E00057F8002211466FF00B0000F031F800227E
:1025F00011466FF00A0000F02BF8002211466FF030
:10260000090000F025F800221146501F00F020F8C4
:1026100000221146101F00F01BF800221146901EE8
:1026200000F016F80022BDE808401146501E00F0E8
:102630000FB800004438024000F01F020121914011
:102640004009800000F1E020C0F800117047000050
:10265000F0B40E4B1B680C46C3F30223C3F107050D
:10266000042D00D90425191D072901D2002300E0FB
:10267000DB1E012606FA05F1491E214099409E40C5
:10268000761E16403143F0BC01F00EB80CED00E0B0
:10269000064900F0070208684FF6FF03184040EAB9
:1026A0000220034A10430860704700000CED00E070
:1026B0000000FA052DE9F0470E46050065D0DFF869
:1026C0001481D8F80000F7B200F00F00B04207D232
:1026D00088F80070D8F8000000F00F00B04254D124
:1026E00028683D4C810712D5400703D5206840F487
:1026F000E05020602878000703D5206840F460404F
:1027000020602068A96820F0F00008432060287845
:10271000C0072DD0304968680839012812D0022836
:1027200013D0032811D00968890700292DDA216800
:1027300021F0030101432160FFF7F4FE814641F2DD
:10274000883A0EE009688903EFE709688901ECE738
:10275000FFF7E8FEA0EB0901514502D90320BDE8CF
:10276000F0872068696800F00C00B0EB810FEFD1B2
:10277000D8F80010404601F00F01B14207D90770A8
:10278000006800F00F00B04201D00120E7E7287890
:10279000400705D52068E96820F4E0500843206030
:1027A0002878000706D52068296920F4604040EAAF
:1027B000C100206000F03CF82168084AC1F3031111
:1027C000515CC840064908600020FFF7D3FE002096
:1027D000C5E70000003C024008380240CE4B00082C
:1027E000901D01200148006870470000901D0120E5
:1027F0000448054900680968044AC1F38221515C14
:10280000C8407047901D012008380240DE4B000888
:102810000448054900680968044AC1F34231515C23
:10282000C8407047901D012008380240DE4B000868
:10283000224810B5006810F00C02214815D0411054
:10284000042A11D01D4C241F082A0FD00C2A0CD1A9
:102850002268236802F03F025B0221D52068C0F3A2
:102860008810A0FB010120E0084610BD2268236803
:1028700002F03F025B0205D52068C0F38810A0FB80
:10288000010104E02168C1F38811A1FB00010023CC
:10289000FDF7B4FC2168C1F30141491C49000AE07D
:1028A0002168C1F38811A1FB00010023FDF7A6FCFC
:1028B0002168C1F30271B0FBF1F010BD083802408D
:1028C0000024F4002DE9F84F0546DFF828B300781E
:1028D000ABF10407C007A7F1040451D0DBF80010E6
:1028E0005846C1F3810101290FD00168C1F381016C
:1028F000022902D13968490207D40068C0F3810077
:10290000032809D13868400206D52068800337D5EE
:102910006868002872D033E06868B0F5803F10D056
:10292000B0F5A02F206810D020F4803020602068FF
:1029300020F4802020606868A8B1FFF7F3FD064608
:102940000DE0206840F48030F4E740F480202060FF
:10295000F7E700BFFFF7E6FD801B642878D8206802
:102960008003F7D50CE0FFF7DDFD064605E000BF6C
:10297000FFF7D8FD801B6428F0D820688003F7D4C7
:102980002878DFF8749280074FF0000A46D5DBF80C
:102990000010584611F00C0F0FD00168C1F38101EF
:1029A000022902D13968490207D50068C0F38100C5
:1029B000032809D13868400206D42068800715D55D
:1029C000E86801281AD111E0E868C0B10120C9F80F
:1029D0000000FFF7A7FD064605E000BFFFF7A2FDD8
:1029E000801B0228BAD820688007F7D5206829699B
:1029F00020F0F80040EAC10020600FE0F7E0C9F8DD
:102A000000A0FFF78FFD064605E000BFFFF78AFD37
:102A1000801B02281CD820688007F7D4287800077C
:102A200027D5DFF8D0817548696908F16C0881B154
:102A300001210160FFF776FD064604E0FFF772FD15
:102A4000801B022804D8D8F800008007F6D510E0D3
:102A500089E0C0F800A0FFF765FD064605E000BF6D
:102A6000FFF760FD801B02287DD8D8F800008007A2
:102A7000F6D42878400769D55E484FF00008383012
:102A80000068C0000BD45B483830016841F08051C9
:102A9000016000684FF0010800F080500090584E2F
:102AA0003068C00511D4306840F480703060FFF7A2
:102AB00039FD009006E000BFFFF734FD0099401A91
:102AC000022850D83068C005F6D54A4EA868683646
:102AD00001280FD00528306810D020F001003060A8
:102AE000306820F004003060A868B8B1FFF71AFD24
:102AF00000900FE0306840F00100F4E740F004007F
:102B00003060F7E7FFF70EFD0099411A41F2883077
:102B1000814264D830688007F4D50EE0FFF702FDEB
:102B2000009007E0FFF7FEFC0099411A41F288305F
:102B3000814254D830688007F4D4B8F1000F05D032
:102B40002C483830016821F080510160A869A8B391
:102B5000DBF80010C1F38101022948D00228C9F82E
:102B600060A005D000E03AE0FFF7DCFC054639E064
:102B7000FFF7D8FC064604E0FFF7D4FC801B0228D0
:102B80002DD820688001F7D4F5E907010843E968EA
:102B90001C4A490802EB0141AA6841EA8211084334
:102BA000297C40EA0160297D40EA017038600120FB
:102BB000C9F86000FFF7B6FC054606E015E000BF67
:102BC000FFF7B0FC401B022809D820688001F7D528
:102BD0000BE000BFFFF7A6FC401B022802D9032030
:102BE000BDE8F88F20688001F4D40020F8E70120C8
:102BF000F6E700000838024000004742800E4742D6
:102C0000007000400000FFFF4FF0E0210428086939
:102C100003D020F004000861704740F00400FAE798
:102C2000704710B5401EB0F1807F01D3012010BD68
:102C30004FF0E02460610F21601700F035FD0020A7
:102C4000A06107202061002010BD10B5FFF7E8FF4C
:102C500010BD30B590F83820012A20D0012280F82C
:102C60003820022380F8393003685C6824F070044F
:102C70005C6003685C680D682C435C6003689C685A
:102C800024F080049C6003689C6849680C439C6045
:102C900080F83920002180F83810084630BD022025
:102CA00030BD10B5040003D094F8390010B107E02E
:102CB000012010BD002084F83800204600F00CF8F8
:102CC000022084F83900211D206800F0C5FE012093
:102CD00084F83900002010BD08B50068B0F1804FBD
:102CE00008D10548016841F001010160006800F069
:102CF0000100009008BD000040380240022180F829
:102D0000391001680A6842F001020A60012180F866
:102D100039100020704770B5044690F8380001283B
:102D200017D0012584F83850022084F83900206833
:102D3000826822F0770222F47F428260086850287D
:102D400037D00DDC202859D005DC88B3102841D1BC
:102D500051E0022070BD302853D040283AD13FE0E6
:102D600060282ED070280BD0B0F5805F03D0B0F56E
:102D7000005F2FD110E02068816821F0070115E085
:102D8000CB68D1E90121206800F0C6FE216888687F
:102D900040F0770088601DE0CB68D1E90121206810
:102DA00000F0BAFE2068816841F48041816011E042
:102DB0001EE0CA684968206800F0C0FE5021206803
:102DC00006E0CA684968206800F0C9FE60212068F2
:102DD00000F0ACFE84F83950002084F8380070BD53
:102DE000CA684968206800F0A9FE40212068EFE722
:102DF00000212068ECE710212068E9E72021206805
:102E0000E6E730212068E3E770B5040004D094F8C9
:102E10003900002510B106E0012070BD84F838505B
:102E2000204600F023F8242084F839002068C16887
:102E300021F40051C160204600F0A4FE2068016921
:102E400021F4904101612068416921F02A0141612A
:102E50002068C16841F40051C160E563202084F816
:102E6000390084F83A00002070BD000000B5006809
:102E70000E4987B0884216D10D48016841F40031EF
:102E800001600068694600F4003005900C20009055
:102E9000022001900120029003200390072004905B
:102EA0000448FFF767FA07B000BD00000044004087
:102EB0004038024000000240FEE7000070B51D4CA3
:102EC000F020A0804FF4A070E0800020607020818E
:102ED0006081042020704FF6FF70E081A081012006
:102EE000A070FEF7C5FE00F0B3F9002201211248E0
:102EF000FFF712FB114E002506EB450136F81500D1
:102F00004988FF2811D000F0B5FAAD1CADB2642D90
:102F1000F2D3607800F04CFABDE87040EF22002157
:102F200040F23F13084600F0E3B9084601F02CFCDC
:102F3000EBE700000000002000040240FE4A000809
:102F40002DE9F04117460D4604003BD4002D39DB36
:102F5000F02C37DAB5F5A07F34DA1B4E00220121C0
:102F60003046FFF7D9FA19484078012804D00228E2
:102F700008D0032813D10CE02046C5F1EF010CB2B4
:102F800005460CE0C4F1EF0004B2A5F23F1568421B
:102F900004E02046A0F23F102C46404205B2A1B208
:102FA000202000F067FAA9B2212000F063FA394628
:102FB000222000F05FFA3046BDE8F04101221146C0
:102FC000FFF7AABABDE8F08100040240000000202B
:102FD00070B5064612484078012808D040F23F14E8
:102FE000022807D003284FF0000501D103E0EF25A8
:102FF000002400E0EF25002201210A48FFF78CFAA7
:103000002946202000F036FA2146212000F032FA2D
:103010003046BDE870404FF4963100F005B800002E
:1030200000000020000402402DE9F047DFF818926C
:103030000C464FEA1028C6B2002201214846FFF78D
:103040006BFA824D002210212846FFF765FA002016
:1030500000F0C6F9222000F0C3F901221021284611
:10306000FFF75AFA404600F0BBF9304600F0B8F9D5
:10307000671EC7F38F14B0457DD0CFE01026002225
:1030800002212846FFF748FA012001F07DFB0122CA
:1030900002212846FFF740FA012001F075FB0022CB
:1030A00002212846FFF738FA012001F06DFB0122CA
:1030B00002212846FFF730FA012001F065FB0022CB
:1030C00002212846FFF728FA012001F05DFB0122CA
:1030D00002212846FFF720FA012001F055FB0022CB
:1030E00002212846FFF718FA012001F04DFB0122CA
:1030F00002212846FFF710FA012001F045FB0022CB
:1031000002212846FFF708FA012001F03DFB0122C9
:1031100002212846FFF700FA012001F035FB0022CA
:1031200002212846FFF7F8F9012001F02DFB0122CA
:1031300002212846FFF7F0F9012001F025FB0022CB
:1031400002212846FFF7E8F9012001F01DFB0122CA
:1031500002212846FFF7E0F9012001F015FB0022CB
:1031600002212846FFF7D8F9012001F00DFB0122CA
:103170000221284600E009E0FFF7CEF9012001F026
:1031800003FB761E16F0FF067FF479AF641EA4B22F
:10319000BFF474AF07F03F041FE00022022128466D
:1031A000FFF7BAF9012001F0EFFA012202212846C7
:1031B000FFF7B2F9012001F0E7FA002202212846C8
:1031C000FFF7AAF9012001F0DFFA012202212846C7
:1031D000FFF7A2F9012001F0D7FA641EE4B2DCD2B5
:1031E0002BE01025404600F0FBF8304600F0F8F8E0
:1031F000404600F0F5F8304600F0F2F8404600F0A6
:10320000EFF8304600F0ECF8404600F0E9F83046C0
:1032100000F0E6F86D1E15F0FF05E3D1641EA4B2C0
:10322000DFD207F03F0405E0404600F0D9F8304611
:1032300000F0D6F8641EE4B2F6D24846BDE8F04786
:1032400001221146FFF768B9000402400000024065
:1032500070B5244E012211463046FFF75DF9224D2C
:10326000012202212846FFF757F90122114628467C
:10327000FFF752F91D4C002202212046FFF74CF9BE
:10328000642001F081FA012202212046FFF744F96F
:10329000002201213046FFF73FF900221021284685
:1032A000FFF73AF9002000F09BF8002400220221E9
:1032B0002846FFF731F9012001F066FA01220221C8
:1032C0002846FFF729F9012001F05EFA641CE4B2F8
:1032D000032CEBD33046BDE8704001221146FFF7C6
:1032E0001BB9000000040240000002400008024038
:1032F0002DE9F047DFF8B0A017460C4605461E46FC
:10330000002201215046FFF707F92848407801289C
:1033100005D002280DD0032819D0A94607E0204681
:103320002C46C6F1EF053E46C0F1EF07B946A04670
:1033300018E02846C7F1EF05C0F1EF072046A6F2D6
:103340003F167442A0F23F104642B94609E02846B3
:103350002546A7F23F177C423746A0F23F1046426F
:10336000A946B046A9B2502000F084F8B9B2512065
:1033700000F080F8A1B2522000F07CF8B1B25320E6
:1033800000F078F81FFA89F1202000F073F81FFA96
:1033900088F1212000F06EF85046BDE8F047012288
:1033A0001146FFF7B9B800000004024000000020F9
:1033B00010F0030309484FF0F0014FF4A07243707E
:1033C00008D0012B03D0022B04D0032B01D1828023
:1033D000C18070478180C2807047000000000020DB
:1033E00010B5214C61694FF6FF02114000F0010257
:1033F00041EA422100F0040241EA022100F0800289
:1034000041EA42016161194A11684FF6C733194018
:1034100000F00803194300F0100341EA43011023B0
:1034200003EA5003194300F0400341EA031111601D
:103430000F490A684FF67F731A4000F0020042EA13
:1034400080100860002202212046FFF765F8012065
:1034500001F09AF9012202212046FFF75DF8BDE84C
:103460001040012001F090B9000002401404024015
:10347000140802402DE9F0410E4E0C46050AC7B271
:10348000002210213046FFF747F82846FFF7A8FF33
:103490003846FFF7A5FF250AE4B201221021304685
:1034A000FFF73AF82846FFF79BFF2046BDE8F041BA
:1034B000FFF796BF000002407FB51648144900246C
:1034C00001604FF48031C0E9011404618461090393
:1034D0000462C1620125C561056345614FF0C061A9
:1034E000C4608162FEF7CAFC18B14A210AA000F04C
:1034F000A0FC0920CDE90005694602940548FEF7C5
:10350000FBFB002803D0542103A000F092FC7FBDF8
:1035100000200140289101202E2E2F5372632F612D
:1035200064632E6300000000094808B5016841F497
:10353000800101600068002200F4800000901146C4
:103540003820FFF785F8BDE808403820FFF774B849
:103550003038024030B51F4887B00024016841F080
:1035600004010160016801F004010591016841F066
:1035700080010160016801F080010591016841F05E
:1035800001010160016801F001010591016841F04C
:10359000020101600068104D00F002000590002259
:1035A00020212846FEF7B8FF4FF4005000900B484A
:1035B000CDE9010469460A48FEF7DCFE20200090B0
:1035C0000120CDE90104694628460394FEF7D2FEA6
:1035D00007B030BD3038024000000240000021102A
:1035E0000008024010B5174886B04FF08041002413
:1035F000C0E9001441F28141C0E902410461FFF7D2
:1036000050FB18B13E2110A000F013FC4FF4805085
:10361000009069460B48FFF77EFB18B144210AA0D1
:1036200000F007FC2020CDE9040404A90548FFF7B9
:1036300010FB002803D04B2103A000F0FAFB06B0DA
:1036400010BD0000D09101202E2E2F5372632F74D5
:10365000696D2E63000000000D4810B50B49016034
:103660004FF4E1314160002181600C22C160C0E96A
:1036700004128161C161FFF7C7FB002805D0BDE8D6
:103680001040422103A000F0D4BB10BD0044004014
:103690000C9201202E2E2F5372632F75736172745A
:1036A0002E630000FEE770470907090E002806DABE
:1036B00000F00F0000F1E02080F8141D704700F1C9
:1036C000E02080F8001470477047704710B5FEF78F
:1036D0002FFFBDE81040FFF7B8BA000030B525480D
:1036E00093B00025016841F080510160006800F04E
:1036F000805012902048016821F4404141F48041FB
:1037000001600068022400F4404012900120039000
:103710001020009406940490CDE907504FF4A8704F
:1037200009900420CDE90A0468460C94FFF7CAF812
:1037300000B1FEE70DA90F2081E831004FF4805061
:10374000CDE9100502210DA8FEF7B4FF00B1FEE798
:10375000FFF748F84FF47A71B0FBF1F0FFF761FA28
:103760000420FFF751FA00221146501EFEF770FFA9
:1037700013B030BD4038024000700040104801686E
:1037800041F4700101600F48016841F001010160DE
:103790000C4A00210832116002680B4B1A4002608B
:1037A000031D0A4A1A60026822F48022026005485A
:1037B0000C300160024958068039086070470000EB
:1037C00088ED00E000380240FFFFF6FE10300024D4
:1037D0002DE9F04F91B0934E0024CDE90E6492494B
:1037E00008AAA6F5486B082782E8920801256420FC
:1037F000CDE90C50CDE90445069510228B4B0320F2
:1038000028210795CDE90032CDE902102B4664222C
:10381000874800F0D7FD4FF4C861584600F082FE9B
:103820003220CDE90C50CDE90E64A6F5C86081497F
:10383000CDE90A70CDE908144FF002084FF0040AF0
:10384000CDE905A8784A18211032CDE90021CDF83C
:103850001C804FF009090295CDE9039410236422DE
:103860000121584600F0AEFD4FF49661A6F5C86000
:1038700000F058FE6F49CDE90E6408AA183182E8BD
:1038800092083220CDE90C50CDE905A518216A4AED
:10389000CDE9002107950295CDE903940B46024638
:1038A0000121A6F5C86000F08DFD4FF496615846E1
:1038B00000F038FE1920CDE90C50CDE90E645D49C9
:1038C000A6F5C8603031CDE90A70CDE90814CDE91C
:1038D00005A82021594ACDE90021CDF81C80029588
:1038E000CDE90394182332220121584600F06AFDE5
:1038F0004FF44871A6F5C86000F014FECDE90E64DF
:1039000008AAA6F5D94182E892081920CDE90C5001
:10391000CDE905A520214A4ACDE900210795029568
:10392000CDE903940B4602460121A6F5C86000F0DC
:1039300049FD4FF44871584600F0F4FD0D20CDE9E3
:103940000C50CDE90E643B49A6F5C8607031CDE955
:103950000A70CDE90814CDE905A8CDF81C804FF018
:103960003008384ACDE900280295CDE90394202398
:1039700019220121584600F025FD4FF41C71A6F5CF
:10398000C86000F0CFFD2B49CDE90E6408AAA03134
:1039900082E892080D20CDE90C50CDE905A52A4A10
:1039A000CDE9002807950295CDE90394024630231E
:1039B0000121A6F5C86000F005FD4FF41C715846C2
:1039C00000F0B0FD21495B4603F5C8628C60002021
:1039D00004EB440500EB0517165DDF5D401C3E441B
:1039E00016550D28F6DB641C302CF0DBC1E90240D3
:1039F00017490C480291CDE9033008220220CDE995
:103A000000020C233022A1F51071124800F05CFD79
:103A1000104A0C21A2F5C86000F091FD11B0002001
:103A2000BDE8F08F688A012068330020E82B002071
:103A3000481C0020981D0120F84000203855002027
:103A4000387000203894002038CA00201000002070
:103A5000781D012028840120F0B50268234B244DF5
:103A6000244E254F254C4FF0804C984209D060459C
:103A700007D0A84205D0B04203D0B84201D0A0423E
:103A800004D122F0700E4A6842EA0E0298421BD01E
:103A9000604519D0A84217D0B04215D0B84213D013
:103AA000A04211D0164DA8420ED0164DA8420BD000
:103AB000154DA84208D0154DA84205D0144DA84276
:103AC00002D0144DA84203D122F44075CA682A439B
:103AD00002608A68C2620A688262984201D0A0428B
:103AE00001D10969016301214161F0BD000001407C
:103AF0000004004000080040000C004000040140A9
:103B000000400140004401400048014000180040CE
:103B1000001C00400020004010B5846842EA0322E7
:103B200024F47F440A432243826010BD826822F05D
:103B300070020A4342F007018160704710B5036AC2
:103B4000046A24F001040462846924F0F00444EA65
:103B5000021423F00A020A438461026210BD10B508
:103B6000036A23F0100303628369046A23F4704339
:103B700043EA023224F0A00343EA011182610162A8
:103B800010BD00002DE9F04104460068016921F4F0
:103B90004052E168114301612168C86849F20C6232
:103BA00090432369A268E5691A4363692B431A436A
:103BB0000243CA602168486920F44072A06910433A
:103BC0004861E1696425B1F5004F9748974A21683B
:103BD0004FF032083FD0914201D081427CD1FEF7B4
:103BE00017FE00EBC00101EB001061688900B0FB1B
:103BF000F1F6FEF70DFE00EBC00101EB001061686D
:103C00008900B0FBF1F0B0FBF5F06FF0180148430C
:103C100006EB800108EB0110B0FBF5F000F0F006B8
:103C2000FEF7F6FD00EBC00101EB001061688900B2
:103C3000B0FBF1F0B0FBF5F006EB0016FEF7E8FD87
:103C400000EBC00101EB001061688900B0FBF1F7E7
:103C5000FEF7DEFDD2E0914201D081423DD1FEF778
:103C6000D7FD00EBC00101EB001061684900B0FB1B
:103C7000F1F0B0FBF5F00601FEF7CAFD00EBC00164
:103C800001EB001061684900B0FBF1F7FEF7C0FDE1
:103C900000EBC00101EB001061684900B0FBF1F0DE
:103CA000B0FBF5F06FF01801484307EB800108EB1B
:103CB000C100B0FBF5F000F0F80006EB4006FEF79F
:103CC000A7FD00EBC00101EB001061684900B0FBEB
:103CD000F1F7FEF79DFD3CE055E0FEF789FD00EBB6
:103CE000C00101EB001061684900B0FBF1F0B0FBCE
:103CF000F5F00601FEF77CFD00EBC00101EB0010C2
:103D000061684900B0FBF1F7FEF772FD00EBC001FE
:103D100001EB001061684900B0FBF1F0B0FBF5F079
:103D20006FF01801484307EB800108EBC100B0FBBE
:103D3000F5F000F0F80006EB4006FEF759FD00EB49
:103D4000C00101EB001061684900B0FBF1F7FEF71C
:103D50004FFD00EBC00101EB001061684900B0FBB2
:103D6000F1F0B0FBF5F06FF01801484307EB80016C
:103D700008EBC100B0FBF5F000F00700216830440B
:103D80008860BDE8F081FEF733FD00EBC00101EB78
:103D9000001061688900B0FBF1F6FEF729FD00EB29
:103DA000C00101EB001061688900B0FBF1F0B0FBCD
:103DB000F5F06FF01801484306EB800108EB0110A5
:103DC000B0FBF5F000F0F006FEF712FD00EBC001CD
:103DD00001EB001061688900B0FBF1F0B0FBF5F079
:103DE00006EB0016FEF704FD00EBC00101EB00102E
:103DF00061688900B0FBF1F7FEF7FAFC00EBC00147
:103E000001EB001061688900B0FBF1F0B0FBF5F048
:103E10006FF01801484307EB800108EB0110B0FB7D
:103E2000F5F000F00F00A9E7001401400010014078
:103E3000FEE7FEE70000000070B5D94B00242DED31
:103E4000020B2DED108BDDE91010984205DA20F001
:103E500000429A4201D809D141B19DED100BBDEC51
:103E6000108B02B0BDE8704000F07ABAB0F5801F48
:103E700026DA11430BD0002813DA012000F09CFA57
:103E8000BDEC108B02B0BDE8704000F075BA0220A6
:103E900000F092FA00F04CFA51EC100B81F0004166
:103EA0009EE06FF035049FEDC00B53EC102B9DEDA1
:103EB000100B51EC100BFCF779FACDE91001084614
:103EC00004EB2051C0F31304B948A1F2FF312044A0
:103ED00000F4801080F07F6282F04052224301EBB8
:103EE00020559FEDB50B119253EC102B9DED100B4F
:103EF00051EC100BFCF754FA41EC180BA01CC0F36A
:103F000013009FEDAFDB9FEDB0EBB14E7E44032875
:103F10006CD296ED000B51EC180B53EC102BFCF708
:103F20002BFC1DD1002D01BF96ED000BBDEC108BBD
:103F300002B070BD2846FCF70EFC41EC180B53ECA8
:103F40001D2BFCF733FA41EC190B53EC1E2B51ECF3
:103F5000180BFCF72BFA53EC192BFCF780F93FE018
:103F60009FED9D0B51EC180B53EC102BFCF71EFA38
:103F70009FED9B1B53EC112BFCF715FA41EC190B31
:103F800053EC182B51EC180BFCF710FA53EC192BCF
:103F9000FCF70CFA41EC190B002D04BF53EC192B64
:103FA00051EC180B1AD02846FCF7D5FB41EC1A0B44
:103FB00053EC1D2BFCF7FAF953EC192BFCF7F3F932
:103FC00053EC182BFCF7ECF941EC180B53EC1E2BBF
:103FD00051EC1A0BFCF7EAF953EC182BFCF7E0F95B
:103FE000BDEC108B02B041EC100B70BD9FED7E0B51
:103FF00051EC180B53EC102BFCF731F941EC100B82
:1040000051EC180B53EC102BFCF736FB41EC190B61
:104010002846FCF7A0FB41EC1B0B53EC192B51EC91
:10402000190BFCF7C3F941EC1A0B714853EC1A2B2E
:10403000261851EC1A0BFCF7B9F941EC1F0B6D482F
:10404000C4F1510404F5D724B0EE4F0AF0EE6F0A24
:104050000321784400F0EFF853EC1F2B51EC100BC8
:10406000FCF7A4F941EC1C0B6348B0EE4F0AF0EEEC
:104070006F0A0421784400F0DEF853EC1A2B51EC5F
:10408000100BFCF793F9344353EC1C2BFCF7E7F8C7
:1040900041EC1C0B002C4CDD9FED510B51EC180B2F
:1040A00053EC102BFCF782F953EC182BFCF77EF93C
:1040B00041EC1A0B55B353EC1D2B51EC1B0BFCF7C9
:1040C00075F941EC1D0B53EC1C2B51EC1A0BFCF752
:1040D000C6F853EC192BFCF769F953EC1D2BFCF7D0
:1040E000BEF853EC1A2BFCF75EF953EC182BFCF7D7
:1040F00057F941EC180B53EC1E2B51EC1B0BFCF742
:1041000055F953EC182BFCF74BF969E753EC1C2BD2
:1041100051EC1A0BFCF7A3F853EC192BFCF746F9FA
:1041200053EC1A2BFCF73FF953EC182BFCF73BF937
:1041300056E735B353EC1D2B51EC1B0BFCF736F94E
:1041400041EC1A0B53EC1C2B51EC180BFCF728F923
:1041500053EC192BFCF72AF953EC1A2BFCF720F936
:1041600053EC182BFCF71CF941EC180B53EC1E2BED
:1041700051EC1B0BFCF71AF953EC182BFCF710F958
:104180002EE753EC1C2B51EC180BFCF709F953EC00
:10419000192BFCF70BF953EC182BFCF704F91FE76C
:1041A0000000F07F0000000000000000000050430D
:1041B000645F090000000000000000000000F03F04
:1041C000763C7935EF39EA3D0000E0FE422EE63FCD
:1041D000100D000000000000555555555555D53FB0
:1041E000000000000000E03F000000000000004070
:1041F00086EBF9FF920B0000880B000010B52DED47
:10420000028BB1EEC08A18EE100A20F00040C0F117
:10421000FF40C00F0AD010EE100A20F00040C0F19D
:10422000FF40C00F04BF012000F0C6F8B0EE480AFE
:10423000BDEC028B10BD70B504462DED028B4D1EFA
:1042400000EBC500B0EE408AF0EE608A90ED000B06
:1042500035F0060017D053EC182B51EC100BFCF77F
:10426000A5F841EC100B6D1E04EBC50090ED001B92
:1042700051EC100B53EC112BFBF7F1FF41EC100B41
:1042800035F00600E7D1022D36D0042D1CD0062DC6
:104290001CBFBDEC028B70BD53EC182B51EC100B06
:1042A000FCF784F894ED0A1B53EC112BFBF7D7FFB6
:1042B00053EC182BFCF77AF894ED081B53EC112BF8
:1042C000FBF7CDFF41EC100B53EC182B51EC100B0E
:1042D000FCF76CF894ED061B53EC112BFBF7BFFFBA
:1042E00053EC182BFCF762F894ED040B53EC102BF5
:1042F000FBF7B5FF41EC100B53EC182B51EC100BF6
:10430000FCF754F894ED021B53EC112BFBF7A7FFBD
:1043100053EC182BFCF74AF894ED001B53EC112BCF
:10432000FBF79DFFBDEC028B41EC100B70BD000054
:104330009FED070B10B553EC102B9FED070B51ECC5
:10434000100BFCF799F941EC100B10BD00000000B8
:104350000000000000000000000000000000F03F2E
:1043600010B553EC102B51EC100BFBF778FF41EC20
:10437000100B10BD000000009FED050B10B553ECB5
:10438000102B51EC100BFCF777F941EC100B10BD22
:10439000000000000000000002E008C8121F08C171
:1043A000002AFAD170477047002001E001C1121FB6
:1043B000002AFBD1704700000149086070470000E7
:1043C000941D01202DE9FF4F82B00020DDE911ABE3
:1043D000DDF86CE010998146884270D2002566E0D5
:1043E000002460E01798012210F909101898814004
:1043F0001998401E82408E18002244E000213EE0C1
:10440000169800FB05271498381A4FFA80FC159867
:1044100000FB04171398381A47B2BCF1000F2CDBCD
:10442000002F2ADB0498844527DA0398874224DA90
:10443000DDF80C8000200CFB08775F43019709FB37
:1044400003F707FB0BF702FB0A1C07FB0AF70CFB41
:10445000037700970FE000BFDDE9017C844417F982
:104460000C80DDF83CC0009F844417F90C7018FBE9
:104470000766401C80B29842EED3491C89B2514570
:10448000BED3521C92B25A45B8D3199805FB0E41BF
:10449000064110981A9A414302EB090006F30706F9
:1044A000641C0E54A4B274459CD36D1CADB21C9810
:1044B000854295D309F1010080B28BE7FFE706B092
:1044C0000020BDE8F08F00002DE9F04F8A46DDE9BD
:1044D0000A7B81460020791E01258D40DDF824E00D
:1044E0001BE000BF1BF9001000FB02F601FA0EF101
:1044F0004C19002109E000BF0AEB010C16F90C80F1
:1045000019F901C01CFB0844491C9142F4DB0C99C9
:104510003C4104F307040C54401C9842E2DB0020A9
:10452000BDE8F08F10B50022134605E08456002C3C
:1045300000DA8354521C92B28A42F7D310BDF0B510
:104540006FF48073002405E005579D4200DD2B4683
:10455000641C24B28C42F7DB083B00251CB22B46BE
:1045600001270AE0C656A64205DD361B86F305067E
:1045700007FA06F635445B1C1BB28B42F2DB4FF4A4
:10458000801393FBF5F500231F460FE0C656A642A5
:1045900009DDA61B0D3686F3050645FA06F606F379
:1045A0000706D65400E0D7545B1C1BB28B42EDDBF0
:1045B000F0BD00002DE9F04F674C05462DED028B54
:1045C000A02187B065484B00C4F80C1000EB8102B5
:1045D000491C92ED000A994282EDA00AF6DB002701
:1045E0003946E76000EB8102491C92ED000AA029E0
:1045F00082EDA00AF6DB5A493E46E76051F82620D4
:1046000000EE102A00EB8602761CB8EE400AA02EBF
:1046100082ED000AF2DBE660022D7DDB514E524B4B
:1046200039464FF4F072E76000EB810C9CED000A14
:1046300006EB810CDCED000A03EB810C491C20EE3B
:10464000200A91428CED000AEEDB4FF400719FEDE1
:10465000478AE26003EB8200521C80ED008A8A42A6
:10466000F8DB6846E260FDF7D4F80023404A3E4993
:104670006846FDF7A6F84FF480723E493C48FCF7C7
:1046800047FCDFF8F0B0BA46ABF5AD4905EB85065F
:10469000E760E368304A03EBC60109EB8101183299
:1046A00081ED008A02F1A007C4F810A052F823207F
:1046B000DC4600BF206991ED000A02EB00080CEB1C
:1046C0008808D8ED000A00EB431807EB8808401C67
:1046D00098ED001A202800EE810A81ED000A206181
:1046E000E8DB4F460868FBF7D3FE41EC100BFFF701
:1046F000A3FB9FED211B51EC100B53EC112BFBF78F
:1047000055FE9FED1F1B53EC112BFBF749FEFBF7EA
:10471000D2FE00EE100A00E019E0E06800EBC600EF
:1047200007EB800080ED000A00F08EF802461420AE
:1047300000EB450001B2A0898C2303EB400000B2DE
:1047400000F028F8E068401CE0602828A1DB07B0F2
:10475000BDEC028BBDE8F08F10000020E861012065
:10476000681E0120C8140020E86901200000000034
:10477000E8710120E87901200000000000004440B9
:104780000000000000C07740002802D000BF401E9B
:10479000FCD170472DE9F04117460E460546FEF75D
:1047A000CFFB681C00B23A4631460446FEF7C8FB10
:1047B000761C31B23A460E462846FEF7C1FB3A4611
:1047C00031462046BDE8F041FEF7BABBFDF7B8FE22
:1047D000FEF784FFFEF7BEFEFEF7A6FEFEF73CFFE7
:1047E000FEF76AFEFEF7FEFEFEF768FB1420FDF7FB
:1047F000AFFD0120FEF7DCFD0020FEF7E9FB0F48CE
:10480000FEF77CFA0E4CA0220E482168FDF7AAFBA9
:10481000002560680028FCD065606069FFF7CAFE6B
:104820006069642806DD00206561FEF7D1FBFEF7B4
:10483000CFFFEEE7401C6061EBE70000D091012064
:10484000100000202891012010EE100AB0F1854FD1
:1048500002DD4FF61F007047B5EEC00AF1EE10FA08
:1048600002DD4FF47840704710EE100A10F1765FC9
:1048700002D24FF6E070704740F2FF7070470000C0
:104880000000003E5B4F5B3E3E6B4F6B3E1C3E7C30
:104890003E1C183C7E3C181C577D571C1C5E7F5EDE
:1048A0001C00183C1800FFE7C3E7FF00182418009D
:1048B000FFE7DBE7FF30483A060E26297929264034
:1048C0007F050507407F05253F5A3CE73C5A7F3E60
:1048D0001C1C08081C1C3E7F14227F22145F5F00F2
:1048E0005F5F06097F017F006689956A606060608E
:1048F0006094A2FFA29408047E040810207E201079
:1049000008082A1C08081C2A08081E101010100C81
:104910001E0C1E0C30383E3830060E3E0E060000CF
:1049200000000000005F00000007000700147F1473
:104930007F14242A7F2A12231308646236495620E2
:10494000500008070300001C2241000041221C0007
:104950002A1C7F1C2A08083E0808008070300008C6
:1049600008080808000060600020100804023E519A
:1049700049453E00427F400072494949462141492C
:104980004D331814127F1027454545393C4A494993
:104990003141211109073649494936464949291EFD
:1049A00000001400000040340000000814224114EC
:1049B00014141414004122140802015909063E413E
:1049C0005D594E7C1211127C7F494949363E414166
:1049D00041227F4141413E7F494949417F090909BF
:1049E000013E414151737F0808087F00417F41002B
:1049F0002040413F017F081422417F404040407FDA
:104A0000021C027F7F0408107F3E4141413E7F0926
:104A10000909063E4151215E7F0919294626494967
:104A2000493203017F01033F4040403F1F204020A7
:104A30001F3F4038403F63140814630304780403A5
:104A40006159494D43007F41414102040810200053
:104A50004141417F040201020440404040400003C4
:104A600007080020545478407F2844443838444490
:104A70004428384444287F385454541800087E0988
:104A80000218A4A49C787F0804047800447D4000A8
:104A90002040403D007F1028440000417F40007CC2
:104AA000047804787C080404783844444438FC18BA
:104AB00024241818242418FC7C080404084854549E
:104AC000542404043F44243C4040207C1C204020CB
:104AD0001C3C4030403C44281028444C9090907C32
:104AE0004464544C44000836410000007700000044
:104AF0004136080002010204020705070000E50034
:104B00000080000001000100000102000007030016
:104B100030100400000008000202090000000A0032
:104B200000000C0000000D0000000F00000010004D
:104B3000000011000000120000001300000010002F
:104B4000B0171100370012003801130000172900B8
:104B50000D002000000021000000300001003100A5
:104B6000060632000403330002023400020235005C
:104B7000030136001D013700040438000404390025
:104B800004043C0000073D001F0A500000005100D3
:104B9000EF005200000053003F01600000A76100D9
:104BA00001006A00000090001000920000009300D5
:104BB0000300950001019700000098000000070025
:104BC0002100070033010006101600061016000031
:104BD00000000000000001020304060708090000AD
:104BE000000001020304000004FA97999999D93F43
:104BF000AF788E1DC571CC3F9FC678D0099AC33F50
:104C0000935555555555E53F599322942449D23F24
:104C1000DE03CB966446C73F44523EDF12F1C23FEB
:104C2000000000000000000008000010100000025A
:104C300018000012200000042800001430000006B4
:104C40003800001640000008480000185000000A14
:104C50005800001A6000000C6800001C7000000E74
:104C60007800001E8000000888004010900040027C
:104C700098004012A0004004A8004014B000400674
:104C8000B8004016C0004008C8004018D000400AD4
:104C9000D800401AE000400CE800401CF000400E34
:104CA000F800401E00010008080180101001800279
:104CB0001801801220018004280180143001800630
:104CC0003801801640018008480180185001800A90
:104CD0005801801A6001800C6801801C7001800EF0
:104CE0007801801E800140088801C0109001C00238
:104CF0009801C012A001C004A801C014B001C006F0
:104D0000B801C016C001C008C801C018D001C00A4F
:104D1000D801C01AE001C00CE801C01CF001C00EAF
:104D2000F801C01E00020008080200111002000372
:104D300018020013200200052802001530020007A7
:104D40003802001740020009480200195002000B07
:104D50005802001B6002000D6802001D7002000F67
:104D60007802001F800280088802401190024003F0
:104D700098024013A0024005A8024015B002400767
:104D8000B8024017C0024009C8024019D002400BC7
:104D9000D802401BE002400DE802401DF002400F27
:104DA000F802401F0003400808038011100380032D
:104DB0001803801320038005280380153003800723
:104DC0003803801740038009480380195003800B83
:104DD0005803801B6003800D6803801D7003800FE3
:104DE0007803801F8003C0088803C0119003C003AC
:104DF0009803C013A003C005A803C015B003C007E3
:104E0000B803C017C003C009C803C019D003C00B42
:104E1000D803C01BE003C00DE803C01DF003C00FA2
:104E2000F803C01F0004001008040810100400114B
:104E30001804081220040810280408143004080676
:104E40003804081640040808480408185004080AE2
:104E50005804081A6004080C6804081C7004080E42
:104E60007804081E80040018880448109004001973
:104E700098044812A0040818A8044814B00448066E
:104E8000B8044816C0044808C8044818D004480AA2
:104E9000D804481AE004480CE804481CF004480E02
:104EA000F804481E00054010080588101005401140
:104EB0001805881220054810280588143005880632
:104EC0003805881640058808480588185005880A5E
:104ED0005805881A6005880C6805881C7005880EBE
:104EE0007805881E800540188805C810900540196F
:104EF0009805C812A0054818A805C814B005C8062A
:104F0000B805C816C005C808C805C818D005C80A1D
:104F1000D805C81AE005C80CE805C81CF005C80E7D
:104F2000F805C81E0006801008060811100680113A
:104F300018060813200688102806081530060807EA
:104F40003806081740060809480608195006080BD5
:104F50005806081B6006080D6806081D7006080F35
:104F60007806081F80068018880648119006801968
:104F700098064813A0068818A8064815B0064807E2
:104F8000B8064817C0064809C8064819D006480B95
:104F9000D806481BE006480DE806481DF006480FF5
:104FA000F806481F0007C010080788111007C01135
:104FB000180788132007C8102807881530078807A6
:104FC0003807881740078809480788195007880B51
:104FD0005807881B6007880D6807881D7007880FB1
:104FE0007807881F8007C0188807C8119007C01964
:104FF0009807C813A007C818A807C815B007C8079E
:10500000B807C817C007C809C807C819D007C80B10
:10501000D807C81BE007C80DE807C81DF007C80F70
:10502000F807C81F080810101008400818081012C8
:1050300020080011280810143008801138081016B4
:10504000480810185008100A5808101A6008100C68
:105050006808101C7008100E7808101E8008000ADE
:10506000880850109008000B98085012A008080AF1
:10507000A8085014B008080BB8085016C008100A49
:10508000C8085018D008500AD808501AE008500C28
:10509000E808501CF008500EF808501E080990103F
:1050A0001009800918099012200900192809901484
:1050B00030098019380990164009000B48099018EA
:1050C0005009900A5809901A6009900C6809901CC0
:1050D0007009900E7809901E8009400A8809D01046
:1050E0009009400B9809D012A009480AA809D014C9
:1050F000B009480BB809D016C009500AC809D01821
:10510000D009D00AD809D01AE009D00CE809D01C7F
:10511000F009D00EF809D01E080A1011180A101351
:10512000200A4011280A1015300AC011380A101739
:10513000480A1019500A100B580A101B600A100D6B
:10514000680A101D700A100F780A101F880A501183
:10515000900A800B980A5013A00A5011A80A501503
:10516000B00A880BB80A5017C00A800BC80A501939
:10517000D00A500BD80A501BE00A500DE80A501D07
:10518000F00A500FF80A501F080B9011180B9013DB
:10519000200B4019280B9015300BC019380B9017B5
:1051A000480B9019500B900B580B901B600B900DF7
:1051B000680B901D700B900F780B901F880BD0110F
:1051C000900BC00B980BD013A00B5019A80BD01547
:1051D000B00BC80BB80BD017C80BD019D80BD01B0D
:1051E000E00BD00DE80BD01DF00BD00FF80BD01F4B
:1051F000000C0012080C1810100C0013180C1812D8
:10520000200C0812280C1814300C0813380C18162F
:10521000400C1012480C1818500C1013580C181A87
:10522000600C1812680C181C700C180E780C181EE4
:10523000800C001A880C5810900C001B980C581207
:10524000A00C081AA80C5814B00C081BB80C58165F
:10525000C00C101AC80C5818D00C101BD80C581AB7
:10526000E00C181AE80C581CF00C580EF80C581EDC
:10527000000D4012080D9810100D4013180D9812D3
:10528000200D4812280D9814300D4813380D98162B
:10529000400D5012480D9818500D5013580D981A83
:1052A000600D5812680D981C700D980E780D981EA0
:1052B000800D401A880DD810900D401B980DD81203
:1052C000A00D481AA80DD814B00D481BB80DD8165B
:1052D000C00D501AC80DD818D00D501BD80DD81AB3
:1052E000E00D581AE80DD81CF00DD80EF80DD81E98
:1052F000000E8012080E1811100E8013180E1813CD
:10530000200E8812280E1815300E8813380E181724
:10531000400E9012480E1819500E9013580E181B7C
:10532000600E9812680E181D700E180F780E181F58
:10533000800E801A880E5811900E801B980E5813FC
:10534000A00E881AA80E5815B00E881BB80E581754
:10535000C00E901AC80E5819D00E901BD80E581BAC
:10536000E00E981AE80E581DF00E580FF80E581F50
:10537000000FC012080F9811100FC013180F9813C8
:10538000200FC812280F9815300FC813380F981720
:10539000400FD012480F9819500FD013580F981B78
:1053A000600FD812680F981D700F980F780F981F14
:1053B000800FC01A880FD811900FC01B980FD813F8
:1053C000A00FC81AA80FD815B00FC81BB80FD81750
:1053D000C00FD01AC80FD819D00FD01BD80FD81BA8
:1053E000E00FD81AE80FD81DF00FD81BF80FD81F00
:1053F000081020101010401018102012281020142F
:105400003010881038102016401000114810201855
:10541000501040115810201A601008126810201CFB
:10542000701088127810201E801000128810081248
:105430009010401298106012A0102012A810601452
:10544000B0106012B8106016C0100013C8106018B9
:10545000D0104013D810601AE0101812E810601C29
:10546000F0109812F810601E08112012101140114F
:105470001811A012201108182811A0143011881832
:105480003811A0164811A0185811A01A6011081A56
:105490006811A01C7011881A7811A01E80111012BA
:1054A00088111812901150129811E012A0111818BA
:1054B000A811E014B0119818B811E016C01110131B
:1054C000C811E018D0115013D811E01AE011181AC1
:1054D000E811E01CF011981AF811E01E00120018F3
:1054E0000812081810124018181220132012201841
:1054F0002812201530126018381220174012001997
:1055000048122019501240195812201B60122019FD
:105510006812201D7012C8127812201F8012001A03
:105520008812081A9012401A98126013A012201ABA
:10553000A8126015B012601AB8126017C012001BD2
:10554000C8126019D012401BD812601BE012201B39
:10555000E812601DF012601BF812601F0013101893
:1055600008131818101350181813A01320134818F4
:105570002813A0153013C8183813A017401310199A
:105580004813A019501350195813A01B6013481A40
:105590006813A01D7013C81A7813A01F8013101A67
:1055A0008813181A9013501A9813E013A013581860
:1055B000A813E015B013D818B813E017C013101BC8
:1055C000C813E019D013501BD813E01BE013581A6E
:1055D000E813E01DF013D81AF813E01F0814201484
:1055E0001014001518142015301408153814281636
:1055F0004014001548142818501410155814281A6F
:10560000601420156814281C701418157814281EAE
:105610008014001C8814201C9014001D9814201D58
:10562000A014081CA814281CB014081DB81468166F
:10563000C014101CC8146818D014101DD814681A8F
:10564000E014181CE814681CF014181DF814681EE7
:105650000815201510154015181560152015281867
:105660002815281C301548153815A8164815A818EF
:105670005815A81A6015281A6815A81C7015A81ABC
:105680007815A81E8015401C8815601C9015401DBB
:105690009815601DA015481CA815681CB015481D5C
:1056A000B815E816C015501CC815E818D015501DBF
:1056B000D815E81AE015581CE815E81CF015581D17
:1056C000F815E81E0016001C0816081C1016401CD1
:1056D0001816481C2016201C2816281C3016601C82
:1056E000381628174016001D481628195016401D58
:1056F0005816281B6016201D6816281D7016601D80
:105700007816281F8016801C8816A01C9016801DF5
:105710009816A01DA016881CA816A81CB016881DD7
:10572000B8166817C016901CC8166819D016901DB8
:10573000D816681BE016981CE816681DF016981D10
:10574000F816681F0017101C0817181C1017501C9B
:105750001817581C201768182817681C3017E818E5
:105760003817A8174017101D4817A8195017501DB3
:105770005817A81B6017681A6817A81D7017E81A31
:105780007817A81F8017C01C8817E01C9017C01D31
:105790009817E01DA017C81CA817E81CB017C81D53
:1057A000B817E817C017D01CC817E819D017D01DB4
:1057B000D817E81BE017D81CE817E81DF017D81D0C
:1057C000F817E81F18186018301848183818601CA7
:1057D0005818301A6818301C7018181A7818301EAB
:1057E0008018001A8818081A9018001B9818601959
:1057F000A018201AA818281AB018201BB818601D65
:10580000C018101AC818181AD018101BD818701AF7
:10581000E018301AE818701CF018581AF818701EA2
:10582000081920191819601A2819081D3019881923
:105830003819881D4819201B5819B01A6019081BFF
:105840006819B01C7019881B7819B01E8019401A8D
:105850008819481A9019401B9819601BA019601AE2
:10586000A819181DB019601BB819981DC019501A35
:10587000C819581AD019501BD819F01AE019181B5A
:10588000E819F01CF019981BF819F01E381A701C52
:10589000581A301B681A301D701A181B781A301FDE
:1058A000901AC01A981AC81AB01AE01AB81AE81A48
:1058B000C01A801BC81A881BD01AC01BD81A701BAC
:1058C000E01AA01BE81A701DF01AE01BF81A701FEE
:1058D000281B481D381BC81D481B601B581BB01BCC
:1058E000681BB01D701BC81B781BB01F901BC01B12
:1058F000981BC81BA81B581DB01BE01BB81BD81D4C
:10590000D81BF01BE81BF01DF81BF01F081C201C07
:10591000181C301C381C681C481C601C581C701C4F
:10592000781C381E801C001E881C201E901C001F26
:10593000981C201FA01C081EA81C281EB01C081F95
:10594000B81C281FC01C101EC81C301ED01C101FE5
:10595000D81C301FE01C181EE81C381EF01C181F35
:10596000F81C781E081D201D181D301D381DA81D8F
:10597000481D601D581D701D681D281F781DB81E0C
:10598000801D401E881D601E901D401F981D601FB9
:10599000A01D481EA81D681EB01D481FB81D681F09
:1059A000C01D501EC81D701ED01D501FD81D701F59
:1059B000E01D581EE81D781EF01D581FF81DF81E2A
:1059C000081E201E181E301E481E601E581E701E07
:1059D000781E381F881EA01E901E801F981EA01FB4
:1059E000B01E881FB81EA81FC01E801FC81E881F9B
:1059F000D01E901FD81EB01FE01EA01FE81EA81FBB
:105A0000F01E981FF81E781F081F201F181F301F38
:105A1000481F601F581F701F781FB81F881FA01FC6
:105A2000901FC01F981FE01FB01FC81FB81FE81F9E
:105A3000C81FE01FD81FF01F080000021000400020
:105A40001800400220008000280080023000C000C2
:105A50003800C0024000000148000003500040012F
:105A60005800400360008001680080037000C0019E
:105A70007800C00380000002880008029000000344
:105A800098004802A0000802A8008802B000C800E0
:105A9000B800C802C0000801C8000803D0004801CF
:105AA000D8004803E0008801E8008803F000C8013E
:105AB000F800C8030801100210014001180150024B
:105AC0002001000328019002300148013801D00272
:105AD00048011003580150036001900168019003D0
